{
  "contracts/DECsRegistry.sol": {
    "DECsRegistry": {
      "abi": [
        {
          "inputs": [
            {
              "internalType": "string",
              "name": "_name",
              "type": "string"
            }
          ],
          "stateMutability": "nonpayable",
          "type": "constructor"
        },
        {
          "anonymous": false,
          "inputs": [
            {
              "indexed": true,
              "internalType": "address",
              "name": "voter",
              "type": "address"
            },
            {
              "indexed": false,
              "internalType": "address",
              "name": "dec",
              "type": "address"
            }
          ],
          "name": "DECRegistered",
          "type": "event"
        },
        {
          "anonymous": false,
          "inputs": [
            {
              "indexed": true,
              "internalType": "address",
              "name": "election",
              "type": "address"
            },
            {
              "indexed": true,
              "internalType": "address",
              "name": "voter",
              "type": "address"
            }
          ],
          "name": "DECStamped",
          "type": "event"
        },
        {
          "inputs": [
            {
              "internalType": "address",
              "name": "voter",
              "type": "address"
            }
          ],
          "name": "getDEC",
          "outputs": [
            {
              "internalType": "address",
              "name": "",
              "type": "address"
            }
          ],
          "stateMutability": "view",
          "type": "function"
        },
        {
          "inputs": [],
          "name": "getName",
          "outputs": [
            {
              "internalType": "string",
              "name": "",
              "type": "string"
            }
          ],
          "stateMutability": "view",
          "type": "function"
        },
        {
          "inputs": [
            {
              "internalType": "address",
              "name": "voter",
              "type": "address"
            },
            {
              "internalType": "address",
              "name": "election",
              "type": "address"
            }
          ],
          "name": "hasVoterAlreadyVoted",
          "outputs": [
            {
              "internalType": "bool",
              "name": "",
              "type": "bool"
            }
          ],
          "stateMutability": "view",
          "type": "function"
        },
        {
          "inputs": [],
          "name": "name",
          "outputs": [
            {
              "internalType": "string",
              "name": "",
              "type": "string"
            }
          ],
          "stateMutability": "view",
          "type": "function"
        },
        {
          "inputs": [],
          "name": "owner",
          "outputs": [
            {
              "internalType": "address",
              "name": "",
              "type": "address"
            }
          ],
          "stateMutability": "view",
          "type": "function"
        },
        {
          "inputs": [
            {
              "internalType": "address",
              "name": "dec",
              "type": "address"
            },
            {
              "internalType": "address",
              "name": "voter",
              "type": "address"
            }
          ],
          "name": "registerDEC",
          "outputs": [],
          "stateMutability": "nonpayable",
          "type": "function"
        },
        {
          "inputs": [
            {
              "internalType": "string",
              "name": "_name",
              "type": "string"
            }
          ],
          "name": "setName",
          "outputs": [],
          "stateMutability": "nonpayable",
          "type": "function"
        },
        {
          "inputs": [
            {
              "internalType": "address",
              "name": "election",
              "type": "address"
            },
            {
              "internalType": "address",
              "name": "voter",
              "type": "address"
            }
          ],
          "name": "stamps",
          "outputs": [],
          "stateMutability": "nonpayable",
          "type": "function"
        }
      ],
      "devdoc": {
        "author": "Christian Palazzo <palazzochristian@yahoo.it>",
        "custom:experimental": "This is an experimental contract.",
        "kind": "dev",
        "methods": {},
        "stateVariables": {
          "electoralStamps": {
            "details": "the first address is related to the Voter's DEC, the second array is the Voter's stamps list"
          },
          "registry": {
            "details": "the first address is related to the Voter's EOA, the second address is related to the DEC"
          }
        },
        "title": "The Registry of the Digital Electoral Cards",
        "version": 1
      },
      "evm": {
        "bytecode": {
          "linkReferences": {},
          "object": "608060405234801562000093576040517f08c379a000000000000000000000000000000000000000000000000000000000815260206004820152602260248201527f45746865722073656e7420746f206e6f6e2d70617961626c652066756e637469604482019081527f6f6e0000000000000000000000000000000000000000000000000000000000006064830152608482fd5b506040516200164038038062001640833981016040819052620000b69162000477565b60008054600160a060020a031916331790556001620000d6828262000692565b50506200076d565b60405190565b620000ee620000de565b7f08c379a000000000000000000000000000000000000000000000000000000000815260206004820152602260248201527f414249206465636f64696e673a207475706c65206461746120746f6f2073686f604482019081527f72740000000000000000000000000000000000000000000000000000000000006064830152608482fd5b6200017c620000de565b7f08c379a000000000000000000000000000000000000000000000000000000000815260206004820152602260248201527f414249206465636f64696e673a20696e76616c6964207475706c65206f666673604482019081527f65740000000000000000000000000000000000000000000000000000000000006064830152608482fd5b6200020a620000de565b7f08c379a000000000000000000000000000000000000000000000000000000000815260206004820152602b60248201527f414249206465636f64696e673a20696e76616c69642063616c6c646174612061604482019081527f72726179206f66667365740000000000000000000000000000000000000000006064830152608482fd5b62000298620000de565b7f08c379a000000000000000000000000000000000000000000000000000000000815260206004820152602760248201527f414249206465636f64696e673a20696e76616c69642062797465206172726179604482019081527f206c656e677468000000000000000000000000000000000000000000000000006064830152608482fd5b601f01601f191690565b7f4e487b7100000000000000000000000000000000000000000000000000000000600052604160045260246000fd5b62000360826200031c565b81018181106001604060020a038211171562000380576200038062000326565b6040525050565b600062000393620000de565b9050620003a1828262000355565b919050565b60006001604060020a03821115620003c257620003c262000326565b620003cd826200031c565b60200192915050565b60005b83811015620003f3578181015183820152602001620003d9565b50506000910152565b6000620004136200040d84620003a6565b62000387565b9050828152602081018484840111156200043157620004316200028e565b6200043e848285620003d6565b509392505050565b600082601f8301126200045d576200045d62000200565b81516200046f848260208601620003fc565b949350505050565b6000602082840312156200048f576200048f620000e4565b81516001604060020a03811115620004ab57620004ab62000172565b6200046f8482850162000446565b5190565b7f4e487b7100000000000000000000000000000000000000000000000000000000600052602260045260246000fd5b6002810460018216806200050157607f821691505b602082108103620005165762000516620004bd565b50919050565b60009081526020902090565b6020601f919091010490565b60020a0290565b6000600883026200054f6000198262000534565b6200055b868362000534565b811690199390931692909217949350505050565b90565b60006200058d6200058762000587846200056f565b6200056f565b92915050565b6200059e8362000572565b620005b6620005ad826200056f565b8484546200053b565b825550505050565b600090565b620005cd620005be565b620005da81848462000593565b505050565b81811015620005fe57620005f5600082620005c3565b600101620005df565b5050565b601f821115620005da5762000617816200051c565b620006228462000528565b81016020851015620006315750805b62000649620006408562000528565b830182620005df565b5050505050565b60020a900490565b60006200066b6000196008850262000650565b199190911692915050565b600062000684838362000658565b600290930290921792915050565b6200069d82620004b9565b6001604060020a03811115620006b757620006b762000326565b620006c38254620004ec565b620006d082828562000602565b6020601f831160018114620007035760008415620006ee5750858201515b620006fa858262000676565b86555062000765565b601f19841662000713866200051c565b60005b8281101562000738578885015182556020948501946001909201910162000716565b8683101562000758578489015162000754601f89168262000658565b8355505b6001600288020188555050505b505050505050565b610ec3806200077d6000396000f3fe608060405234801561007b5760405160e560020a62461bcd02815260206004820152602260248201527f45746865722073656e7420746f206e6f6e2d70617961626c652066756e637469604482019081527f6f6e0000000000000000000000000000000000000000000000000000000000006064830152608482fd5b5060043610610110576000357c0100000000000000000000000000000000000000000000000000000000900480639b8a5511116100e35780639b8a5511146101d0578063c47f0027146101e3578063c9359cc1146101f6578063db2e0fbc1461021657610110565b806306fdde031461018057806317d7de7c1461019e5780633113af7e146101a65780638da5cb5b146101bb575b60405160e560020a62461bcd02815260206004820152603560248201527f436f6e747261637420646f6573206e6f7420686176652066616c6c6261636b20604482019081527f6e6f7220726563656976652066756e6374696f6e7300000000000000000000006064830152608482fd5b610188610229565b604051610195919061067d565b60405180910390f35b6101886102b7565b6101b96101b43660046107be565b610349565b005b6101c36103fa565b604051610195919061080a565b6101c36101de366004610818565b610409565b6101b96101f1366004610a3b565b610467565b6102096102043660046107be565b6104a0565b6040516101959190610a84565b6101b96102243660046107be565b61052b565b6001805461023690610ac1565b80601f016020809104026020016040519081016040528092919081815260200182805461026290610ac1565b80156102af5780601f10610284576101008083540402835291602001916102af565b820191906000526020600020905b81548152906001019060200180831161029257829003601f168201915b505050505081565b6060600180546102c690610ac1565b80601f01602080910402602001604051908101604052809291908181526020018280546102f290610ac1565b801561033f5780601f106103145761010080835404028352916020019161033f565b820191906000526020600020905b81548152906001019060200180831161032257829003601f168201915b5050505050905090565b600054600160a060020a0316331461037f5760405160e560020a62461bcd02815260040161037690610b58565b60405180910390fd5b600160a060020a0381811660008181526002602090815260408083208054600181018255908452918320909101805473ffffffffffffffffffffffffffffffffffffffff19169487169485179055519192917fd65ed39a4c28c03ac682b4d01bb143492ab94c2c14a0aaf5d03f7d042b5fa52b9190a35b5050565b600054600160a060020a031681565b600160a060020a038181166000908152600360205260408120549091166104455760405160e560020a62461bcd02815260040161037690610bcc565b50600160a060020a03808216600090815260036020526040902054165b919050565b600054600160a060020a031633146104945760405160e560020a62461bcd02815260040161037690610b58565b60016103f68282610d23565b6000805b600160a060020a03841660009081526002602052604090205481101561051f57600160a060020a038481166000908152600260205260409020805491851691839081106104f3576104f3610dea565b600091825260209091200154600160a060020a031603610517576001915050610525565b6001016104a4565b50600090505b92915050565b600054600160a060020a031633146105585760405160e560020a62461bcd02815260040161037690610b58565b600160a060020a0381811660009081526003602052604090205416156105935760405160e560020a62461bcd02815260040161037690610e7d565b600160a060020a0381811660008181526003602052604090819020805473ffffffffffffffffffffffffffffffffffffffff191693861693841790555190917f1744301c2b01957046e85df4119150e7c38874d3563ceda23de32a05f40e90b2916105fe919061080a565b60405180910390a25050565b5190565b90815260200190565b60005b8381101561063257818101518382015260200161061a565b50506000910152565b601f01601f191690565b60006106508261060a565b61065a818561060e565b935061066a818560208601610617565b6106738161063b565b9093019392505050565b6020808252810161068e8184610645565b9392505050565b60405190565b6106a3610695565b60e560020a62461bcd02815260206004820152602260248201527f414249206465636f64696e673a207475706c65206461746120746f6f2073686f604482019081527f72740000000000000000000000000000000000000000000000000000000000006064830152608482fd5b610718610695565b60e560020a62461bcd02815260206004820152602260248201527f414249206465636f64696e673a20696e76616c6964207475706c65206f666673604482019081527f65740000000000000000000000000000000000000000000000000000000000006064830152608482fd5b600160a060020a031690565b600061052582610785565b6107a581610791565b81146107b057600080fd5b50565b80356105258161079c565b600080604083850312156107d4576107d461069b565b60006107e085856107b3565b92505060206107f1858286016107b3565b9150509250929050565b61080481610791565b82525050565b6020810161052582846107fb565b60006020828403121561082d5761082d61069b565b600061083984846107b3565b949350505050565b610849610695565b60e560020a62461bcd02815260206004820152602b60248201527f414249206465636f64696e673a20696e76616c69642063616c6c646174612061604482019081527f72726179206f66667365740000000000000000000000000000000000000000006064830152608482fd5b6108be610695565b60e560020a62461bcd02815260206004820152602760248201527f414249206465636f64696e673a20696e76616c69642062797465206172726179604482019081527f206c656e677468000000000000000000000000000000000000000000000000006064830152608482fd5b7f4e487b7100000000000000000000000000000000000000000000000000000000600052604160045260246000fd5b6109638261063b565b810181811067ffffffffffffffff821117156109815761098161092b565b6040525050565b6000610992610695565b9050610462828261095a565b600067ffffffffffffffff8211156109b8576109b861092b565b6109c18261063b565b60200192915050565b82818337506000910152565b60006109e96109e48461099e565b610988565b905082815260208101848484011115610a0457610a046108b6565b610a0f8482856109ca565b509392505050565b600082601f830112610a2b57610a2b610841565b81356108398482602086016109d6565b600060208284031215610a5057610a5061069b565b813567ffffffffffffffff811115610a6a57610a6a610710565b61083984828501610a17565b151590565b61080481610a76565b602081016105258284610a7b565b7f4e487b7100000000000000000000000000000000000000000000000000000000600052602260045260246000fd5b600281046001821680610ad557607f821691505b602082108103610ae757610ae7610a92565b50919050565b7f4f6e6c79206f776e65722063616e2063616c6c20746869732066756e6374696f81527f6e00000000000000000000000000000000000000000000000000000000000000602090910152565b6000610b4660218361060e565b9150610b5182610aed565b5060400190565b6020808252810161052581610b39565b7f54686520566f74657220646f6e2774206861766520612072656769737465726581527f6420444543000000000000000000000000000000000000000000000000000000602090910152565b6000610bc160258361060e565b9150610b5182610b68565b6020808252810161052581610bb4565b60009081526020902090565b6020601f919091010490565b60020a0290565b600060088302610c0d60001982610bf4565b610c178683610bf4565b811690199390931692909217949350505050565b90565b6000610525610c3f610c3f84610c2b565b610c2b565b610c4d83610c2e565b610c61610c5982610c2b565b848454610bfb565b825550505050565b600090565b610c76610c69565b610c81818484610c44565b505050565b818110156103f657610c99600082610c6e565b600101610c86565b601f821115610c8157610cb381610bdc565b610cbc84610be8565b81016020851015610cca5750805b610cde610cd685610be8565b830182610c86565b5050505050565b60020a900490565b6000610cfe60001960088502610ce5565b199190911692915050565b6000610d158383610ced565b600290930290921792915050565b610d2c8261060a565b67ffffffffffffffff811115610d4457610d4461092b565b610d4e8254610ac1565b610d59828285610ca1565b6020601f831160018114610d875760008415610d755750858201515b610d7f8582610d09565b865550610de2565b601f198416610d9586610bdc565b60005b82811015610db85788850151825560209485019460019092019101610d98565b86831015610dd55784890151610dd1601f891682610ced565b8355505b6001600288020188555050505b505050505050565b7f4e487b7100000000000000000000000000000000000000000000000000000000600052603260045260246000fd5b7f54686520566f74657227732044454320686173206265656e20616c726561647981527f2072656769737465726564000000000000000000000000000000000000000000602090910152565b6000610e72602b8361060e565b9150610b5182610e19565b6020808252810161052581610e6556fea26469706673582212205bfb5f2d253c74afa046d2f7c847b8e70fe238ca90081c95a0a6a712eff8ec6d64736f6c63430008180033",
          "opcodes": "PUSH1 0x80 PUSH1 0x40 MSTORE CALLVALUE DUP1 ISZERO PUSH3 0x93 JUMPI PUSH1 0x40 MLOAD PUSH32 0x8C379A000000000000000000000000000000000000000000000000000000000 DUP2 MSTORE PUSH1 0x20 PUSH1 0x4 DUP3 ADD MSTORE PUSH1 0x22 PUSH1 0x24 DUP3 ADD MSTORE PUSH32 0x45746865722073656E7420746F206E6F6E2D70617961626C652066756E637469 PUSH1 0x44 DUP3 ADD SWAP1 DUP2 MSTORE PUSH32 0x6F6E000000000000000000000000000000000000000000000000000000000000 PUSH1 0x64 DUP4 ADD MSTORE PUSH1 0x84 DUP3 REVERT JUMPDEST POP PUSH1 0x40 MLOAD PUSH3 0x1640 CODESIZE SUB DUP1 PUSH3 0x1640 DUP4 CODECOPY DUP2 ADD PUSH1 0x40 DUP2 SWAP1 MSTORE PUSH3 0xB6 SWAP2 PUSH3 0x477 JUMP JUMPDEST PUSH1 0x0 DUP1 SLOAD PUSH1 0x1 PUSH1 0xA0 PUSH1 0x2 EXP SUB NOT AND CALLER OR SWAP1 SSTORE PUSH1 0x1 PUSH3 0xD6 DUP3 DUP3 PUSH3 0x692 JUMP JUMPDEST POP POP PUSH3 0x76D JUMP JUMPDEST PUSH1 0x40 MLOAD SWAP1 JUMP JUMPDEST PUSH3 0xEE PUSH3 0xDE JUMP JUMPDEST PUSH32 0x8C379A000000000000000000000000000000000000000000000000000000000 DUP2 MSTORE PUSH1 0x20 PUSH1 0x4 DUP3 ADD MSTORE PUSH1 0x22 PUSH1 0x24 DUP3 ADD MSTORE PUSH32 0x414249206465636F64696E673A207475706C65206461746120746F6F2073686F PUSH1 0x44 DUP3 ADD SWAP1 DUP2 MSTORE PUSH32 0x7274000000000000000000000000000000000000000000000000000000000000 PUSH1 0x64 DUP4 ADD MSTORE PUSH1 0x84 DUP3 REVERT JUMPDEST PUSH3 0x17C PUSH3 0xDE JUMP JUMPDEST PUSH32 0x8C379A000000000000000000000000000000000000000000000000000000000 DUP2 MSTORE PUSH1 0x20 PUSH1 0x4 DUP3 ADD MSTORE PUSH1 0x22 PUSH1 0x24 DUP3 ADD MSTORE PUSH32 0x414249206465636F64696E673A20696E76616C6964207475706C65206F666673 PUSH1 0x44 DUP3 ADD SWAP1 DUP2 MSTORE PUSH32 0x6574000000000000000000000000000000000000000000000000000000000000 PUSH1 0x64 DUP4 ADD MSTORE PUSH1 0x84 DUP3 REVERT JUMPDEST PUSH3 0x20A PUSH3 0xDE JUMP JUMPDEST PUSH32 0x8C379A000000000000000000000000000000000000000000000000000000000 DUP2 MSTORE PUSH1 0x20 PUSH1 0x4 DUP3 ADD MSTORE PUSH1 0x2B PUSH1 0x24 DUP3 ADD MSTORE PUSH32 0x414249206465636F64696E673A20696E76616C69642063616C6C646174612061 PUSH1 0x44 DUP3 ADD SWAP1 DUP2 MSTORE PUSH32 0x72726179206F6666736574000000000000000000000000000000000000000000 PUSH1 0x64 DUP4 ADD MSTORE PUSH1 0x84 DUP3 REVERT JUMPDEST PUSH3 0x298 PUSH3 0xDE JUMP JUMPDEST PUSH32 0x8C379A000000000000000000000000000000000000000000000000000000000 DUP2 MSTORE PUSH1 0x20 PUSH1 0x4 DUP3 ADD MSTORE PUSH1 0x27 PUSH1 0x24 DUP3 ADD MSTORE PUSH32 0x414249206465636F64696E673A20696E76616C69642062797465206172726179 PUSH1 0x44 DUP3 ADD SWAP1 DUP2 MSTORE PUSH32 0x206C656E67746800000000000000000000000000000000000000000000000000 PUSH1 0x64 DUP4 ADD MSTORE PUSH1 0x84 DUP3 REVERT JUMPDEST PUSH1 0x1F ADD PUSH1 0x1F NOT AND SWAP1 JUMP JUMPDEST PUSH32 0x4E487B7100000000000000000000000000000000000000000000000000000000 PUSH1 0x0 MSTORE PUSH1 0x41 PUSH1 0x4 MSTORE PUSH1 0x24 PUSH1 0x0 REVERT JUMPDEST PUSH3 0x360 DUP3 PUSH3 0x31C JUMP JUMPDEST DUP2 ADD DUP2 DUP2 LT PUSH1 0x1 PUSH1 0x40 PUSH1 0x2 EXP SUB DUP3 GT OR ISZERO PUSH3 0x380 JUMPI PUSH3 0x380 PUSH3 0x326 JUMP JUMPDEST PUSH1 0x40 MSTORE POP POP JUMP JUMPDEST PUSH1 0x0 PUSH3 0x393 PUSH3 0xDE JUMP JUMPDEST SWAP1 POP PUSH3 0x3A1 DUP3 DUP3 PUSH3 0x355 JUMP JUMPDEST SWAP2 SWAP1 POP JUMP JUMPDEST PUSH1 0x0 PUSH1 0x1 PUSH1 0x40 PUSH1 0x2 EXP SUB DUP3 GT ISZERO PUSH3 0x3C2 JUMPI PUSH3 0x3C2 PUSH3 0x326 JUMP JUMPDEST PUSH3 0x3CD DUP3 PUSH3 0x31C JUMP JUMPDEST PUSH1 0x20 ADD SWAP3 SWAP2 POP POP JUMP JUMPDEST PUSH1 0x0 JUMPDEST DUP4 DUP2 LT ISZERO PUSH3 0x3F3 JUMPI DUP2 DUP2 ADD MLOAD DUP4 DUP3 ADD MSTORE PUSH1 0x20 ADD PUSH3 0x3D9 JUMP JUMPDEST POP POP PUSH1 0x0 SWAP2 ADD MSTORE JUMP JUMPDEST PUSH1 0x0 PUSH3 0x413 PUSH3 0x40D DUP5 PUSH3 0x3A6 JUMP JUMPDEST PUSH3 0x387 JUMP JUMPDEST SWAP1 POP DUP3 DUP2 MSTORE PUSH1 0x20 DUP2 ADD DUP5 DUP5 DUP5 ADD GT ISZERO PUSH3 0x431 JUMPI PUSH3 0x431 PUSH3 0x28E JUMP JUMPDEST PUSH3 0x43E DUP5 DUP3 DUP6 PUSH3 0x3D6 JUMP JUMPDEST POP SWAP4 SWAP3 POP POP POP JUMP JUMPDEST PUSH1 0x0 DUP3 PUSH1 0x1F DUP4 ADD SLT PUSH3 0x45D JUMPI PUSH3 0x45D PUSH3 0x200 JUMP JUMPDEST DUP2 MLOAD PUSH3 0x46F DUP5 DUP3 PUSH1 0x20 DUP7 ADD PUSH3 0x3FC JUMP JUMPDEST SWAP5 SWAP4 POP POP POP POP JUMP JUMPDEST PUSH1 0x0 PUSH1 0x20 DUP3 DUP5 SUB SLT ISZERO PUSH3 0x48F JUMPI PUSH3 0x48F PUSH3 0xE4 JUMP JUMPDEST DUP2 MLOAD PUSH1 0x1 PUSH1 0x40 PUSH1 0x2 EXP SUB DUP2 GT ISZERO PUSH3 0x4AB JUMPI PUSH3 0x4AB PUSH3 0x172 JUMP JUMPDEST PUSH3 0x46F DUP5 DUP3 DUP6 ADD PUSH3 0x446 JUMP JUMPDEST MLOAD SWAP1 JUMP JUMPDEST PUSH32 0x4E487B7100000000000000000000000000000000000000000000000000000000 PUSH1 0x0 MSTORE PUSH1 0x22 PUSH1 0x4 MSTORE PUSH1 0x24 PUSH1 0x0 REVERT JUMPDEST PUSH1 0x2 DUP2 DIV PUSH1 0x1 DUP3 AND DUP1 PUSH3 0x501 JUMPI PUSH1 0x7F DUP3 AND SWAP2 POP JUMPDEST PUSH1 0x20 DUP3 LT DUP2 SUB PUSH3 0x516 JUMPI PUSH3 0x516 PUSH3 0x4BD JUMP JUMPDEST POP SWAP2 SWAP1 POP JUMP JUMPDEST PUSH1 0x0 SWAP1 DUP2 MSTORE PUSH1 0x20 SWAP1 KECCAK256 SWAP1 JUMP JUMPDEST PUSH1 0x20 PUSH1 0x1F SWAP2 SWAP1 SWAP2 ADD DIV SWAP1 JUMP JUMPDEST PUSH1 0x2 EXP MUL SWAP1 JUMP JUMPDEST PUSH1 0x0 PUSH1 0x8 DUP4 MUL PUSH3 0x54F PUSH1 0x0 NOT DUP3 PUSH3 0x534 JUMP JUMPDEST PUSH3 0x55B DUP7 DUP4 PUSH3 0x534 JUMP JUMPDEST DUP2 AND SWAP1 NOT SWAP4 SWAP1 SWAP4 AND SWAP3 SWAP1 SWAP3 OR SWAP5 SWAP4 POP POP POP POP JUMP JUMPDEST SWAP1 JUMP JUMPDEST PUSH1 0x0 PUSH3 0x58D PUSH3 0x587 PUSH3 0x587 DUP5 PUSH3 0x56F JUMP JUMPDEST PUSH3 0x56F JUMP JUMPDEST SWAP3 SWAP2 POP POP JUMP JUMPDEST PUSH3 0x59E DUP4 PUSH3 0x572 JUMP JUMPDEST PUSH3 0x5B6 PUSH3 0x5AD DUP3 PUSH3 0x56F JUMP JUMPDEST DUP5 DUP5 SLOAD PUSH3 0x53B JUMP JUMPDEST DUP3 SSTORE POP POP POP POP JUMP JUMPDEST PUSH1 0x0 SWAP1 JUMP JUMPDEST PUSH3 0x5CD PUSH3 0x5BE JUMP JUMPDEST PUSH3 0x5DA DUP2 DUP5 DUP5 PUSH3 0x593 JUMP JUMPDEST POP POP POP JUMP JUMPDEST DUP2 DUP2 LT ISZERO PUSH3 0x5FE JUMPI PUSH3 0x5F5 PUSH1 0x0 DUP3 PUSH3 0x5C3 JUMP JUMPDEST PUSH1 0x1 ADD PUSH3 0x5DF JUMP JUMPDEST POP POP JUMP JUMPDEST PUSH1 0x1F DUP3 GT ISZERO PUSH3 0x5DA JUMPI PUSH3 0x617 DUP2 PUSH3 0x51C JUMP JUMPDEST PUSH3 0x622 DUP5 PUSH3 0x528 JUMP JUMPDEST DUP2 ADD PUSH1 0x20 DUP6 LT ISZERO PUSH3 0x631 JUMPI POP DUP1 JUMPDEST PUSH3 0x649 PUSH3 0x640 DUP6 PUSH3 0x528 JUMP JUMPDEST DUP4 ADD DUP3 PUSH3 0x5DF JUMP JUMPDEST POP POP POP POP POP JUMP JUMPDEST PUSH1 0x2 EXP SWAP1 DIV SWAP1 JUMP JUMPDEST PUSH1 0x0 PUSH3 0x66B PUSH1 0x0 NOT PUSH1 0x8 DUP6 MUL PUSH3 0x650 JUMP JUMPDEST NOT SWAP2 SWAP1 SWAP2 AND SWAP3 SWAP2 POP POP JUMP JUMPDEST PUSH1 0x0 PUSH3 0x684 DUP4 DUP4 PUSH3 0x658 JUMP JUMPDEST PUSH1 0x2 SWAP1 SWAP4 MUL SWAP1 SWAP3 OR SWAP3 SWAP2 POP POP JUMP JUMPDEST PUSH3 0x69D DUP3 PUSH3 0x4B9 JUMP JUMPDEST PUSH1 0x1 PUSH1 0x40 PUSH1 0x2 EXP SUB DUP2 GT ISZERO PUSH3 0x6B7 JUMPI PUSH3 0x6B7 PUSH3 0x326 JUMP JUMPDEST PUSH3 0x6C3 DUP3 SLOAD PUSH3 0x4EC JUMP JUMPDEST PUSH3 0x6D0 DUP3 DUP3 DUP6 PUSH3 0x602 JUMP JUMPDEST PUSH1 0x20 PUSH1 0x1F DUP4 GT PUSH1 0x1 DUP2 EQ PUSH3 0x703 JUMPI PUSH1 0x0 DUP5 ISZERO PUSH3 0x6EE JUMPI POP DUP6 DUP3 ADD MLOAD JUMPDEST PUSH3 0x6FA DUP6 DUP3 PUSH3 0x676 JUMP JUMPDEST DUP7 SSTORE POP PUSH3 0x765 JUMP JUMPDEST PUSH1 0x1F NOT DUP5 AND PUSH3 0x713 DUP7 PUSH3 0x51C JUMP JUMPDEST PUSH1 0x0 JUMPDEST DUP3 DUP2 LT ISZERO PUSH3 0x738 JUMPI DUP9 DUP6 ADD MLOAD DUP3 SSTORE PUSH1 0x20 SWAP5 DUP6 ADD SWAP5 PUSH1 0x1 SWAP1 SWAP3 ADD SWAP2 ADD PUSH3 0x716 JUMP JUMPDEST DUP7 DUP4 LT ISZERO PUSH3 0x758 JUMPI DUP5 DUP10 ADD MLOAD PUSH3 0x754 PUSH1 0x1F DUP10 AND DUP3 PUSH3 0x658 JUMP JUMPDEST DUP4 SSTORE POP JUMPDEST PUSH1 0x1 PUSH1 0x2 DUP9 MUL ADD DUP9 SSTORE POP POP POP JUMPDEST POP POP POP POP POP POP JUMP JUMPDEST PUSH2 0xEC3 DUP1 PUSH3 0x77D PUSH1 0x0 CODECOPY PUSH1 0x0 RETURN INVALID PUSH1 0x80 PUSH1 0x40 MSTORE CALLVALUE DUP1 ISZERO PUSH2 0x7B JUMPI PUSH1 0x40 MLOAD PUSH1 0xE5 PUSH1 0x2 EXP PUSH3 0x461BCD MUL DUP2 MSTORE PUSH1 0x20 PUSH1 0x4 DUP3 ADD MSTORE PUSH1 0x22 PUSH1 0x24 DUP3 ADD MSTORE PUSH32 0x45746865722073656E7420746F206E6F6E2D70617961626C652066756E637469 PUSH1 0x44 DUP3 ADD SWAP1 DUP2 MSTORE PUSH32 0x6F6E000000000000000000000000000000000000000000000000000000000000 PUSH1 0x64 DUP4 ADD MSTORE PUSH1 0x84 DUP3 REVERT JUMPDEST POP PUSH1 0x4 CALLDATASIZE LT PUSH2 0x110 JUMPI PUSH1 0x0 CALLDATALOAD PUSH29 0x100000000000000000000000000000000000000000000000000000000 SWAP1 DIV DUP1 PUSH4 0x9B8A5511 GT PUSH2 0xE3 JUMPI DUP1 PUSH4 0x9B8A5511 EQ PUSH2 0x1D0 JUMPI DUP1 PUSH4 0xC47F0027 EQ PUSH2 0x1E3 JUMPI DUP1 PUSH4 0xC9359CC1 EQ PUSH2 0x1F6 JUMPI DUP1 PUSH4 0xDB2E0FBC EQ PUSH2 0x216 JUMPI PUSH2 0x110 JUMP JUMPDEST DUP1 PUSH4 0x6FDDE03 EQ PUSH2 0x180 JUMPI DUP1 PUSH4 0x17D7DE7C EQ PUSH2 0x19E JUMPI DUP1 PUSH4 0x3113AF7E EQ PUSH2 0x1A6 JUMPI DUP1 PUSH4 0x8DA5CB5B EQ PUSH2 0x1BB JUMPI JUMPDEST PUSH1 0x40 MLOAD PUSH1 0xE5 PUSH1 0x2 EXP PUSH3 0x461BCD MUL DUP2 MSTORE PUSH1 0x20 PUSH1 0x4 DUP3 ADD MSTORE PUSH1 0x35 PUSH1 0x24 DUP3 ADD MSTORE PUSH32 0x436F6E747261637420646F6573206E6F7420686176652066616C6C6261636B20 PUSH1 0x44 DUP3 ADD SWAP1 DUP2 MSTORE PUSH32 0x6E6F7220726563656976652066756E6374696F6E730000000000000000000000 PUSH1 0x64 DUP4 ADD MSTORE PUSH1 0x84 DUP3 REVERT JUMPDEST PUSH2 0x188 PUSH2 0x229 JUMP JUMPDEST PUSH1 0x40 MLOAD PUSH2 0x195 SWAP2 SWAP1 PUSH2 0x67D JUMP JUMPDEST PUSH1 0x40 MLOAD DUP1 SWAP2 SUB SWAP1 RETURN JUMPDEST PUSH2 0x188 PUSH2 0x2B7 JUMP JUMPDEST PUSH2 0x1B9 PUSH2 0x1B4 CALLDATASIZE PUSH1 0x4 PUSH2 0x7BE JUMP JUMPDEST PUSH2 0x349 JUMP JUMPDEST STOP JUMPDEST PUSH2 0x1C3 PUSH2 0x3FA JUMP JUMPDEST PUSH1 0x40 MLOAD PUSH2 0x195 SWAP2 SWAP1 PUSH2 0x80A JUMP JUMPDEST PUSH2 0x1C3 PUSH2 0x1DE CALLDATASIZE PUSH1 0x4 PUSH2 0x818 JUMP JUMPDEST PUSH2 0x409 JUMP JUMPDEST PUSH2 0x1B9 PUSH2 0x1F1 CALLDATASIZE PUSH1 0x4 PUSH2 0xA3B JUMP JUMPDEST PUSH2 0x467 JUMP JUMPDEST PUSH2 0x209 PUSH2 0x204 CALLDATASIZE PUSH1 0x4 PUSH2 0x7BE JUMP JUMPDEST PUSH2 0x4A0 JUMP JUMPDEST PUSH1 0x40 MLOAD PUSH2 0x195 SWAP2 SWAP1 PUSH2 0xA84 JUMP JUMPDEST PUSH2 0x1B9 PUSH2 0x224 CALLDATASIZE PUSH1 0x4 PUSH2 0x7BE JUMP JUMPDEST PUSH2 0x52B JUMP JUMPDEST PUSH1 0x1 DUP1 SLOAD PUSH2 0x236 SWAP1 PUSH2 0xAC1 JUMP JUMPDEST DUP1 PUSH1 0x1F ADD PUSH1 0x20 DUP1 SWAP2 DIV MUL PUSH1 0x20 ADD PUSH1 0x40 MLOAD SWAP1 DUP2 ADD PUSH1 0x40 MSTORE DUP1 SWAP3 SWAP2 SWAP1 DUP2 DUP2 MSTORE PUSH1 0x20 ADD DUP3 DUP1 SLOAD PUSH2 0x262 SWAP1 PUSH2 0xAC1 JUMP JUMPDEST DUP1 ISZERO PUSH2 0x2AF JUMPI DUP1 PUSH1 0x1F LT PUSH2 0x284 JUMPI PUSH2 0x100 DUP1 DUP4 SLOAD DIV MUL DUP4 MSTORE SWAP2 PUSH1 0x20 ADD SWAP2 PUSH2 0x2AF JUMP JUMPDEST DUP3 ADD SWAP2 SWAP1 PUSH1 0x0 MSTORE PUSH1 0x20 PUSH1 0x0 KECCAK256 SWAP1 JUMPDEST DUP2 SLOAD DUP2 MSTORE SWAP1 PUSH1 0x1 ADD SWAP1 PUSH1 0x20 ADD DUP1 DUP4 GT PUSH2 0x292 JUMPI DUP3 SWAP1 SUB PUSH1 0x1F AND DUP3 ADD SWAP2 JUMPDEST POP POP POP POP POP DUP2 JUMP JUMPDEST PUSH1 0x60 PUSH1 0x1 DUP1 SLOAD PUSH2 0x2C6 SWAP1 PUSH2 0xAC1 JUMP JUMPDEST DUP1 PUSH1 0x1F ADD PUSH1 0x20 DUP1 SWAP2 DIV MUL PUSH1 0x20 ADD PUSH1 0x40 MLOAD SWAP1 DUP2 ADD PUSH1 0x40 MSTORE DUP1 SWAP3 SWAP2 SWAP1 DUP2 DUP2 MSTORE PUSH1 0x20 ADD DUP3 DUP1 SLOAD PUSH2 0x2F2 SWAP1 PUSH2 0xAC1 JUMP JUMPDEST DUP1 ISZERO PUSH2 0x33F JUMPI DUP1 PUSH1 0x1F LT PUSH2 0x314 JUMPI PUSH2 0x100 DUP1 DUP4 SLOAD DIV MUL DUP4 MSTORE SWAP2 PUSH1 0x20 ADD SWAP2 PUSH2 0x33F JUMP JUMPDEST DUP3 ADD SWAP2 SWAP1 PUSH1 0x0 MSTORE PUSH1 0x20 PUSH1 0x0 KECCAK256 SWAP1 JUMPDEST DUP2 SLOAD DUP2 MSTORE SWAP1 PUSH1 0x1 ADD SWAP1 PUSH1 0x20 ADD DUP1 DUP4 GT PUSH2 0x322 JUMPI DUP3 SWAP1 SUB PUSH1 0x1F AND DUP3 ADD SWAP2 JUMPDEST POP POP POP POP POP SWAP1 POP SWAP1 JUMP JUMPDEST PUSH1 0x0 SLOAD PUSH1 0x1 PUSH1 0xA0 PUSH1 0x2 EXP SUB AND CALLER EQ PUSH2 0x37F JUMPI PUSH1 0x40 MLOAD PUSH1 0xE5 PUSH1 0x2 EXP PUSH3 0x461BCD MUL DUP2 MSTORE PUSH1 0x4 ADD PUSH2 0x376 SWAP1 PUSH2 0xB58 JUMP JUMPDEST PUSH1 0x40 MLOAD DUP1 SWAP2 SUB SWAP1 REVERT JUMPDEST PUSH1 0x1 PUSH1 0xA0 PUSH1 0x2 EXP SUB DUP2 DUP2 AND PUSH1 0x0 DUP2 DUP2 MSTORE PUSH1 0x2 PUSH1 0x20 SWAP1 DUP2 MSTORE PUSH1 0x40 DUP1 DUP4 KECCAK256 DUP1 SLOAD PUSH1 0x1 DUP2 ADD DUP3 SSTORE SWAP1 DUP5 MSTORE SWAP2 DUP4 KECCAK256 SWAP1 SWAP2 ADD DUP1 SLOAD PUSH20 0xFFFFFFFFFFFFFFFFFFFFFFFFFFFFFFFFFFFFFFFF NOT AND SWAP5 DUP8 AND SWAP5 DUP6 OR SWAP1 SSTORE MLOAD SWAP2 SWAP3 SWAP2 PUSH32 0xD65ED39A4C28C03AC682B4D01BB143492AB94C2C14A0AAF5D03F7D042B5FA52B SWAP2 SWAP1 LOG3 JUMPDEST POP POP JUMP JUMPDEST PUSH1 0x0 SLOAD PUSH1 0x1 PUSH1 0xA0 PUSH1 0x2 EXP SUB AND DUP2 JUMP JUMPDEST PUSH1 0x1 PUSH1 0xA0 PUSH1 0x2 EXP SUB DUP2 DUP2 AND PUSH1 0x0 SWAP1 DUP2 MSTORE PUSH1 0x3 PUSH1 0x20 MSTORE PUSH1 0x40 DUP2 KECCAK256 SLOAD SWAP1 SWAP2 AND PUSH2 0x445 JUMPI PUSH1 0x40 MLOAD PUSH1 0xE5 PUSH1 0x2 EXP PUSH3 0x461BCD MUL DUP2 MSTORE PUSH1 0x4 ADD PUSH2 0x376 SWAP1 PUSH2 0xBCC JUMP JUMPDEST POP PUSH1 0x1 PUSH1 0xA0 PUSH1 0x2 EXP SUB DUP1 DUP3 AND PUSH1 0x0 SWAP1 DUP2 MSTORE PUSH1 0x3 PUSH1 0x20 MSTORE PUSH1 0x40 SWAP1 KECCAK256 SLOAD AND JUMPDEST SWAP2 SWAP1 POP JUMP JUMPDEST PUSH1 0x0 SLOAD PUSH1 0x1 PUSH1 0xA0 PUSH1 0x2 EXP SUB AND CALLER EQ PUSH2 0x494 JUMPI PUSH1 0x40 MLOAD PUSH1 0xE5 PUSH1 0x2 EXP PUSH3 0x461BCD MUL DUP2 MSTORE PUSH1 0x4 ADD PUSH2 0x376 SWAP1 PUSH2 0xB58 JUMP JUMPDEST PUSH1 0x1 PUSH2 0x3F6 DUP3 DUP3 PUSH2 0xD23 JUMP JUMPDEST PUSH1 0x0 DUP1 JUMPDEST PUSH1 0x1 PUSH1 0xA0 PUSH1 0x2 EXP SUB DUP5 AND PUSH1 0x0 SWAP1 DUP2 MSTORE PUSH1 0x2 PUSH1 0x20 MSTORE PUSH1 0x40 SWAP1 KECCAK256 SLOAD DUP2 LT ISZERO PUSH2 0x51F JUMPI PUSH1 0x1 PUSH1 0xA0 PUSH1 0x2 EXP SUB DUP5 DUP2 AND PUSH1 0x0 SWAP1 DUP2 MSTORE PUSH1 0x2 PUSH1 0x20 MSTORE PUSH1 0x40 SWAP1 KECCAK256 DUP1 SLOAD SWAP2 DUP6 AND SWAP2 DUP4 SWAP1 DUP2 LT PUSH2 0x4F3 JUMPI PUSH2 0x4F3 PUSH2 0xDEA JUMP JUMPDEST PUSH1 0x0 SWAP2 DUP3 MSTORE PUSH1 0x20 SWAP1 SWAP2 KECCAK256 ADD SLOAD PUSH1 0x1 PUSH1 0xA0 PUSH1 0x2 EXP SUB AND SUB PUSH2 0x517 JUMPI PUSH1 0x1 SWAP2 POP POP PUSH2 0x525 JUMP JUMPDEST PUSH1 0x1 ADD PUSH2 0x4A4 JUMP JUMPDEST POP PUSH1 0x0 SWAP1 POP JUMPDEST SWAP3 SWAP2 POP POP JUMP JUMPDEST PUSH1 0x0 SLOAD PUSH1 0x1 PUSH1 0xA0 PUSH1 0x2 EXP SUB AND CALLER EQ PUSH2 0x558 JUMPI PUSH1 0x40 MLOAD PUSH1 0xE5 PUSH1 0x2 EXP PUSH3 0x461BCD MUL DUP2 MSTORE PUSH1 0x4 ADD PUSH2 0x376 SWAP1 PUSH2 0xB58 JUMP JUMPDEST PUSH1 0x1 PUSH1 0xA0 PUSH1 0x2 EXP SUB DUP2 DUP2 AND PUSH1 0x0 SWAP1 DUP2 MSTORE PUSH1 0x3 PUSH1 0x20 MSTORE PUSH1 0x40 SWAP1 KECCAK256 SLOAD AND ISZERO PUSH2 0x593 JUMPI PUSH1 0x40 MLOAD PUSH1 0xE5 PUSH1 0x2 EXP PUSH3 0x461BCD MUL DUP2 MSTORE PUSH1 0x4 ADD PUSH2 0x376 SWAP1 PUSH2 0xE7D JUMP JUMPDEST PUSH1 0x1 PUSH1 0xA0 PUSH1 0x2 EXP SUB DUP2 DUP2 AND PUSH1 0x0 DUP2 DUP2 MSTORE PUSH1 0x3 PUSH1 0x20 MSTORE PUSH1 0x40 SWAP1 DUP2 SWAP1 KECCAK256 DUP1 SLOAD PUSH20 0xFFFFFFFFFFFFFFFFFFFFFFFFFFFFFFFFFFFFFFFF NOT AND SWAP4 DUP7 AND SWAP4 DUP5 OR SWAP1 SSTORE MLOAD SWAP1 SWAP2 PUSH32 0x1744301C2B01957046E85DF4119150E7C38874D3563CEDA23DE32A05F40E90B2 SWAP2 PUSH2 0x5FE SWAP2 SWAP1 PUSH2 0x80A JUMP JUMPDEST PUSH1 0x40 MLOAD DUP1 SWAP2 SUB SWAP1 LOG2 POP POP JUMP JUMPDEST MLOAD SWAP1 JUMP JUMPDEST SWAP1 DUP2 MSTORE PUSH1 0x20 ADD SWAP1 JUMP JUMPDEST PUSH1 0x0 JUMPDEST DUP4 DUP2 LT ISZERO PUSH2 0x632 JUMPI DUP2 DUP2 ADD MLOAD DUP4 DUP3 ADD MSTORE PUSH1 0x20 ADD PUSH2 0x61A JUMP JUMPDEST POP POP PUSH1 0x0 SWAP2 ADD MSTORE JUMP JUMPDEST PUSH1 0x1F ADD PUSH1 0x1F NOT AND SWAP1 JUMP JUMPDEST PUSH1 0x0 PUSH2 0x650 DUP3 PUSH2 0x60A JUMP JUMPDEST PUSH2 0x65A DUP2 DUP6 PUSH2 0x60E JUMP JUMPDEST SWAP4 POP PUSH2 0x66A DUP2 DUP6 PUSH1 0x20 DUP7 ADD PUSH2 0x617 JUMP JUMPDEST PUSH2 0x673 DUP2 PUSH2 0x63B JUMP JUMPDEST SWAP1 SWAP4 ADD SWAP4 SWAP3 POP POP POP JUMP JUMPDEST PUSH1 0x20 DUP1 DUP3 MSTORE DUP2 ADD PUSH2 0x68E DUP2 DUP5 PUSH2 0x645 JUMP JUMPDEST SWAP4 SWAP3 POP POP POP JUMP JUMPDEST PUSH1 0x40 MLOAD SWAP1 JUMP JUMPDEST PUSH2 0x6A3 PUSH2 0x695 JUMP JUMPDEST PUSH1 0xE5 PUSH1 0x2 EXP PUSH3 0x461BCD MUL DUP2 MSTORE PUSH1 0x20 PUSH1 0x4 DUP3 ADD MSTORE PUSH1 0x22 PUSH1 0x24 DUP3 ADD MSTORE PUSH32 0x414249206465636F64696E673A207475706C65206461746120746F6F2073686F PUSH1 0x44 DUP3 ADD SWAP1 DUP2 MSTORE PUSH32 0x7274000000000000000000000000000000000000000000000000000000000000 PUSH1 0x64 DUP4 ADD MSTORE PUSH1 0x84 DUP3 REVERT JUMPDEST PUSH2 0x718 PUSH2 0x695 JUMP JUMPDEST PUSH1 0xE5 PUSH1 0x2 EXP PUSH3 0x461BCD MUL DUP2 MSTORE PUSH1 0x20 PUSH1 0x4 DUP3 ADD MSTORE PUSH1 0x22 PUSH1 0x24 DUP3 ADD MSTORE PUSH32 0x414249206465636F64696E673A20696E76616C6964207475706C65206F666673 PUSH1 0x44 DUP3 ADD SWAP1 DUP2 MSTORE PUSH32 0x6574000000000000000000000000000000000000000000000000000000000000 PUSH1 0x64 DUP4 ADD MSTORE PUSH1 0x84 DUP3 REVERT JUMPDEST PUSH1 0x1 PUSH1 0xA0 PUSH1 0x2 EXP SUB AND SWAP1 JUMP JUMPDEST PUSH1 0x0 PUSH2 0x525 DUP3 PUSH2 0x785 JUMP JUMPDEST PUSH2 0x7A5 DUP2 PUSH2 0x791 JUMP JUMPDEST DUP2 EQ PUSH2 0x7B0 JUMPI PUSH1 0x0 DUP1 REVERT JUMPDEST POP JUMP JUMPDEST DUP1 CALLDATALOAD PUSH2 0x525 DUP2 PUSH2 0x79C JUMP JUMPDEST PUSH1 0x0 DUP1 PUSH1 0x40 DUP4 DUP6 SUB SLT ISZERO PUSH2 0x7D4 JUMPI PUSH2 0x7D4 PUSH2 0x69B JUMP JUMPDEST PUSH1 0x0 PUSH2 0x7E0 DUP6 DUP6 PUSH2 0x7B3 JUMP JUMPDEST SWAP3 POP POP PUSH1 0x20 PUSH2 0x7F1 DUP6 DUP3 DUP7 ADD PUSH2 0x7B3 JUMP JUMPDEST SWAP2 POP POP SWAP3 POP SWAP3 SWAP1 POP JUMP JUMPDEST PUSH2 0x804 DUP2 PUSH2 0x791 JUMP JUMPDEST DUP3 MSTORE POP POP JUMP JUMPDEST PUSH1 0x20 DUP2 ADD PUSH2 0x525 DUP3 DUP5 PUSH2 0x7FB JUMP JUMPDEST PUSH1 0x0 PUSH1 0x20 DUP3 DUP5 SUB SLT ISZERO PUSH2 0x82D JUMPI PUSH2 0x82D PUSH2 0x69B JUMP JUMPDEST PUSH1 0x0 PUSH2 0x839 DUP5 DUP5 PUSH2 0x7B3 JUMP JUMPDEST SWAP5 SWAP4 POP POP POP POP JUMP JUMPDEST PUSH2 0x849 PUSH2 0x695 JUMP JUMPDEST PUSH1 0xE5 PUSH1 0x2 EXP PUSH3 0x461BCD MUL DUP2 MSTORE PUSH1 0x20 PUSH1 0x4 DUP3 ADD MSTORE PUSH1 0x2B PUSH1 0x24 DUP3 ADD MSTORE PUSH32 0x414249206465636F64696E673A20696E76616C69642063616C6C646174612061 PUSH1 0x44 DUP3 ADD SWAP1 DUP2 MSTORE PUSH32 0x72726179206F6666736574000000000000000000000000000000000000000000 PUSH1 0x64 DUP4 ADD MSTORE PUSH1 0x84 DUP3 REVERT JUMPDEST PUSH2 0x8BE PUSH2 0x695 JUMP JUMPDEST PUSH1 0xE5 PUSH1 0x2 EXP PUSH3 0x461BCD MUL DUP2 MSTORE PUSH1 0x20 PUSH1 0x4 DUP3 ADD MSTORE PUSH1 0x27 PUSH1 0x24 DUP3 ADD MSTORE PUSH32 0x414249206465636F64696E673A20696E76616C69642062797465206172726179 PUSH1 0x44 DUP3 ADD SWAP1 DUP2 MSTORE PUSH32 0x206C656E67746800000000000000000000000000000000000000000000000000 PUSH1 0x64 DUP4 ADD MSTORE PUSH1 0x84 DUP3 REVERT JUMPDEST PUSH32 0x4E487B7100000000000000000000000000000000000000000000000000000000 PUSH1 0x0 MSTORE PUSH1 0x41 PUSH1 0x4 MSTORE PUSH1 0x24 PUSH1 0x0 REVERT JUMPDEST PUSH2 0x963 DUP3 PUSH2 0x63B JUMP JUMPDEST DUP2 ADD DUP2 DUP2 LT PUSH8 0xFFFFFFFFFFFFFFFF DUP3 GT OR ISZERO PUSH2 0x981 JUMPI PUSH2 0x981 PUSH2 0x92B JUMP JUMPDEST PUSH1 0x40 MSTORE POP POP JUMP JUMPDEST PUSH1 0x0 PUSH2 0x992 PUSH2 0x695 JUMP JUMPDEST SWAP1 POP PUSH2 0x462 DUP3 DUP3 PUSH2 0x95A JUMP JUMPDEST PUSH1 0x0 PUSH8 0xFFFFFFFFFFFFFFFF DUP3 GT ISZERO PUSH2 0x9B8 JUMPI PUSH2 0x9B8 PUSH2 0x92B JUMP JUMPDEST PUSH2 0x9C1 DUP3 PUSH2 0x63B JUMP JUMPDEST PUSH1 0x20 ADD SWAP3 SWAP2 POP POP JUMP JUMPDEST DUP3 DUP2 DUP4 CALLDATACOPY POP PUSH1 0x0 SWAP2 ADD MSTORE JUMP JUMPDEST PUSH1 0x0 PUSH2 0x9E9 PUSH2 0x9E4 DUP5 PUSH2 0x99E JUMP JUMPDEST PUSH2 0x988 JUMP JUMPDEST SWAP1 POP DUP3 DUP2 MSTORE PUSH1 0x20 DUP2 ADD DUP5 DUP5 DUP5 ADD GT ISZERO PUSH2 0xA04 JUMPI PUSH2 0xA04 PUSH2 0x8B6 JUMP JUMPDEST PUSH2 0xA0F DUP5 DUP3 DUP6 PUSH2 0x9CA JUMP JUMPDEST POP SWAP4 SWAP3 POP POP POP JUMP JUMPDEST PUSH1 0x0 DUP3 PUSH1 0x1F DUP4 ADD SLT PUSH2 0xA2B JUMPI PUSH2 0xA2B PUSH2 0x841 JUMP JUMPDEST DUP2 CALLDATALOAD PUSH2 0x839 DUP5 DUP3 PUSH1 0x20 DUP7 ADD PUSH2 0x9D6 JUMP JUMPDEST PUSH1 0x0 PUSH1 0x20 DUP3 DUP5 SUB SLT ISZERO PUSH2 0xA50 JUMPI PUSH2 0xA50 PUSH2 0x69B JUMP JUMPDEST DUP2 CALLDATALOAD PUSH8 0xFFFFFFFFFFFFFFFF DUP2 GT ISZERO PUSH2 0xA6A JUMPI PUSH2 0xA6A PUSH2 0x710 JUMP JUMPDEST PUSH2 0x839 DUP5 DUP3 DUP6 ADD PUSH2 0xA17 JUMP JUMPDEST ISZERO ISZERO SWAP1 JUMP JUMPDEST PUSH2 0x804 DUP2 PUSH2 0xA76 JUMP JUMPDEST PUSH1 0x20 DUP2 ADD PUSH2 0x525 DUP3 DUP5 PUSH2 0xA7B JUMP JUMPDEST PUSH32 0x4E487B7100000000000000000000000000000000000000000000000000000000 PUSH1 0x0 MSTORE PUSH1 0x22 PUSH1 0x4 MSTORE PUSH1 0x24 PUSH1 0x0 REVERT JUMPDEST PUSH1 0x2 DUP2 DIV PUSH1 0x1 DUP3 AND DUP1 PUSH2 0xAD5 JUMPI PUSH1 0x7F DUP3 AND SWAP2 POP JUMPDEST PUSH1 0x20 DUP3 LT DUP2 SUB PUSH2 0xAE7 JUMPI PUSH2 0xAE7 PUSH2 0xA92 JUMP JUMPDEST POP SWAP2 SWAP1 POP JUMP JUMPDEST PUSH32 0x4F6E6C79206F776E65722063616E2063616C6C20746869732066756E6374696F DUP2 MSTORE PUSH32 0x6E00000000000000000000000000000000000000000000000000000000000000 PUSH1 0x20 SWAP1 SWAP2 ADD MSTORE JUMP JUMPDEST PUSH1 0x0 PUSH2 0xB46 PUSH1 0x21 DUP4 PUSH2 0x60E JUMP JUMPDEST SWAP2 POP PUSH2 0xB51 DUP3 PUSH2 0xAED JUMP JUMPDEST POP PUSH1 0x40 ADD SWAP1 JUMP JUMPDEST PUSH1 0x20 DUP1 DUP3 MSTORE DUP2 ADD PUSH2 0x525 DUP2 PUSH2 0xB39 JUMP JUMPDEST PUSH32 0x54686520566F74657220646F6E27742068617665206120726567697374657265 DUP2 MSTORE PUSH32 0x6420444543000000000000000000000000000000000000000000000000000000 PUSH1 0x20 SWAP1 SWAP2 ADD MSTORE JUMP JUMPDEST PUSH1 0x0 PUSH2 0xBC1 PUSH1 0x25 DUP4 PUSH2 0x60E JUMP JUMPDEST SWAP2 POP PUSH2 0xB51 DUP3 PUSH2 0xB68 JUMP JUMPDEST PUSH1 0x20 DUP1 DUP3 MSTORE DUP2 ADD PUSH2 0x525 DUP2 PUSH2 0xBB4 JUMP JUMPDEST PUSH1 0x0 SWAP1 DUP2 MSTORE PUSH1 0x20 SWAP1 KECCAK256 SWAP1 JUMP JUMPDEST PUSH1 0x20 PUSH1 0x1F SWAP2 SWAP1 SWAP2 ADD DIV SWAP1 JUMP JUMPDEST PUSH1 0x2 EXP MUL SWAP1 JUMP JUMPDEST PUSH1 0x0 PUSH1 0x8 DUP4 MUL PUSH2 0xC0D PUSH1 0x0 NOT DUP3 PUSH2 0xBF4 JUMP JUMPDEST PUSH2 0xC17 DUP7 DUP4 PUSH2 0xBF4 JUMP JUMPDEST DUP2 AND SWAP1 NOT SWAP4 SWAP1 SWAP4 AND SWAP3 SWAP1 SWAP3 OR SWAP5 SWAP4 POP POP POP POP JUMP JUMPDEST SWAP1 JUMP JUMPDEST PUSH1 0x0 PUSH2 0x525 PUSH2 0xC3F PUSH2 0xC3F DUP5 PUSH2 0xC2B JUMP JUMPDEST PUSH2 0xC2B JUMP JUMPDEST PUSH2 0xC4D DUP4 PUSH2 0xC2E JUMP JUMPDEST PUSH2 0xC61 PUSH2 0xC59 DUP3 PUSH2 0xC2B JUMP JUMPDEST DUP5 DUP5 SLOAD PUSH2 0xBFB JUMP JUMPDEST DUP3 SSTORE POP POP POP POP JUMP JUMPDEST PUSH1 0x0 SWAP1 JUMP JUMPDEST PUSH2 0xC76 PUSH2 0xC69 JUMP JUMPDEST PUSH2 0xC81 DUP2 DUP5 DUP5 PUSH2 0xC44 JUMP JUMPDEST POP POP POP JUMP JUMPDEST DUP2 DUP2 LT ISZERO PUSH2 0x3F6 JUMPI PUSH2 0xC99 PUSH1 0x0 DUP3 PUSH2 0xC6E JUMP JUMPDEST PUSH1 0x1 ADD PUSH2 0xC86 JUMP JUMPDEST PUSH1 0x1F DUP3 GT ISZERO PUSH2 0xC81 JUMPI PUSH2 0xCB3 DUP2 PUSH2 0xBDC JUMP JUMPDEST PUSH2 0xCBC DUP5 PUSH2 0xBE8 JUMP JUMPDEST DUP2 ADD PUSH1 0x20 DUP6 LT ISZERO PUSH2 0xCCA JUMPI POP DUP1 JUMPDEST PUSH2 0xCDE PUSH2 0xCD6 DUP6 PUSH2 0xBE8 JUMP JUMPDEST DUP4 ADD DUP3 PUSH2 0xC86 JUMP JUMPDEST POP POP POP POP POP JUMP JUMPDEST PUSH1 0x2 EXP SWAP1 DIV SWAP1 JUMP JUMPDEST PUSH1 0x0 PUSH2 0xCFE PUSH1 0x0 NOT PUSH1 0x8 DUP6 MUL PUSH2 0xCE5 JUMP JUMPDEST NOT SWAP2 SWAP1 SWAP2 AND SWAP3 SWAP2 POP POP JUMP JUMPDEST PUSH1 0x0 PUSH2 0xD15 DUP4 DUP4 PUSH2 0xCED JUMP JUMPDEST PUSH1 0x2 SWAP1 SWAP4 MUL SWAP1 SWAP3 OR SWAP3 SWAP2 POP POP JUMP JUMPDEST PUSH2 0xD2C DUP3 PUSH2 0x60A JUMP JUMPDEST PUSH8 0xFFFFFFFFFFFFFFFF DUP2 GT ISZERO PUSH2 0xD44 JUMPI PUSH2 0xD44 PUSH2 0x92B JUMP JUMPDEST PUSH2 0xD4E DUP3 SLOAD PUSH2 0xAC1 JUMP JUMPDEST PUSH2 0xD59 DUP3 DUP3 DUP6 PUSH2 0xCA1 JUMP JUMPDEST PUSH1 0x20 PUSH1 0x1F DUP4 GT PUSH1 0x1 DUP2 EQ PUSH2 0xD87 JUMPI PUSH1 0x0 DUP5 ISZERO PUSH2 0xD75 JUMPI POP DUP6 DUP3 ADD MLOAD JUMPDEST PUSH2 0xD7F DUP6 DUP3 PUSH2 0xD09 JUMP JUMPDEST DUP7 SSTORE POP PUSH2 0xDE2 JUMP JUMPDEST PUSH1 0x1F NOT DUP5 AND PUSH2 0xD95 DUP7 PUSH2 0xBDC JUMP JUMPDEST PUSH1 0x0 JUMPDEST DUP3 DUP2 LT ISZERO PUSH2 0xDB8 JUMPI DUP9 DUP6 ADD MLOAD DUP3 SSTORE PUSH1 0x20 SWAP5 DUP6 ADD SWAP5 PUSH1 0x1 SWAP1 SWAP3 ADD SWAP2 ADD PUSH2 0xD98 JUMP JUMPDEST DUP7 DUP4 LT ISZERO PUSH2 0xDD5 JUMPI DUP5 DUP10 ADD MLOAD PUSH2 0xDD1 PUSH1 0x1F DUP10 AND DUP3 PUSH2 0xCED JUMP JUMPDEST DUP4 SSTORE POP JUMPDEST PUSH1 0x1 PUSH1 0x2 DUP9 MUL ADD DUP9 SSTORE POP POP POP JUMPDEST POP POP POP POP POP POP JUMP JUMPDEST PUSH32 0x4E487B7100000000000000000000000000000000000000000000000000000000 PUSH1 0x0 MSTORE PUSH1 0x32 PUSH1 0x4 MSTORE PUSH1 0x24 PUSH1 0x0 REVERT JUMPDEST PUSH32 0x54686520566F74657227732044454320686173206265656E20616C7265616479 DUP2 MSTORE PUSH32 0x2072656769737465726564000000000000000000000000000000000000000000 PUSH1 0x20 SWAP1 SWAP2 ADD MSTORE JUMP JUMPDEST PUSH1 0x0 PUSH2 0xE72 PUSH1 0x2B DUP4 PUSH2 0x60E JUMP JUMPDEST SWAP2 POP PUSH2 0xB51 DUP3 PUSH2 0xE19 JUMP JUMPDEST PUSH1 0x20 DUP1 DUP3 MSTORE DUP2 ADD PUSH2 0x525 DUP2 PUSH2 0xE65 JUMP INVALID LOG2 PUSH5 0x6970667358 0x22 SLT KECCAK256 JUMPDEST 0xFB PUSH0 0x2D 0x25 EXTCODECOPY PUSH21 0xAFA046D2F7C847B8E70FE238CA90081C95A0A6A712 0xEF 0xF8 0xEC PUSH14 0x64736F6C63430008180033000000 "
        },
        "gasEstimates": {
          "creation": {
            "codeDepositCost": "755800",
            "executionCost": "infinite",
            "totalCost": "infinite"
          },
          "external": {
            "getDEC(address)": "infinite",
            "getName()": "infinite",
            "hasVoterAlreadyVoted(address,address)": "infinite",
            "name()": "infinite",
            "owner()": "infinite",
            "registerDEC(address,address)": "infinite",
            "setName(string)": "infinite",
            "stamps(address,address)": "infinite"
          }
        },
        "methodIdentifiers": {
          "getDEC(address)": "9b8a5511",
          "getName()": "17d7de7c",
          "hasVoterAlreadyVoted(address,address)": "c9359cc1",
          "name()": "06fdde03",
          "owner()": "8da5cb5b",
          "registerDEC(address,address)": "db2e0fbc",
          "setName(string)": "c47f0027",
          "stamps(address,address)": "3113af7e"
        }
      },
      "storageLayout": {
        "storage": [
          {
            "astId": 144,
            "contract": "contracts/DECsRegistry.sol:DECsRegistry",
            "label": "owner",
            "offset": 0,
            "slot": "0",
            "type": "t_address"
          },
          {
            "astId": 146,
            "contract": "contracts/DECsRegistry.sol:DECsRegistry",
            "label": "name",
            "offset": 0,
            "slot": "1",
            "type": "t_string_storage"
          },
          {
            "astId": 152,
            "contract": "contracts/DECsRegistry.sol:DECsRegistry",
            "label": "electoralStamps",
            "offset": 0,
            "slot": "2",
            "type": "t_mapping(t_address,t_array(t_address)dyn_storage)"
          },
          {
            "astId": 157,
            "contract": "contracts/DECsRegistry.sol:DECsRegistry",
            "label": "registry",
            "offset": 0,
            "slot": "3",
            "type": "t_mapping(t_address,t_address)"
          }
        ],
        "types": {
          "t_address": {
            "encoding": "inplace",
            "label": "address",
            "numberOfBytes": "20"
          },
          "t_array(t_address)dyn_storage": {
            "base": "t_address",
            "encoding": "dynamic_array",
            "label": "address[]",
            "numberOfBytes": "32"
          },
          "t_mapping(t_address,t_address)": {
            "encoding": "mapping",
            "key": "t_address",
            "label": "mapping(address => address)",
            "numberOfBytes": "32",
            "value": "t_address"
          },
          "t_mapping(t_address,t_array(t_address)dyn_storage)": {
            "encoding": "mapping",
            "key": "t_address",
            "label": "mapping(address => address[])",
            "numberOfBytes": "32",
            "value": "t_array(t_address)dyn_storage"
          },
          "t_string_storage": {
            "encoding": "bytes",
            "label": "string",
            "numberOfBytes": "32"
          }
        }
      },
      "userdoc": {
        "kind": "user",
        "methods": {
          "getDEC(address)": {
            "notice": "this function returns an encrypted DEC in order to check if a Voter has the voting rights"
          },
          "getName()": {
            "notice": "DECs REgistry name getter function"
          },
          "hasVoterAlreadyVoted(address,address)": {
            "notice": "this function checks in the registry if the Voter already voted in a certail election"
          },
          "registerDEC(address,address)": {
            "notice": "this function is used by the third party authority to register a Voter's DEC in the registry"
          },
          "setName(string)": {
            "notice": "DECs REgistry name setter function"
          },
          "stamps(address,address)": {
            "notice": "this function put the election stamp on the Voter's stamps list after the vote"
          }
        },
        "version": 1
      }
    }
  }
}