{
  "contracts/DEC.sol": {
    "DEC": {
      "abi": [
        {
          "inputs": [
            {
              "internalType": "bytes",
              "name": "_taxCode",
              "type": "bytes"
            },
            {
              "internalType": "bytes",
              "name": "_municipality",
              "type": "bytes"
            },
            {
              "internalType": "bytes",
              "name": "_region",
              "type": "bytes"
            },
            {
              "internalType": "bytes",
              "name": "_country",
              "type": "bytes"
            }
          ],
          "stateMutability": "nonpayable",
          "type": "constructor"
        },
        {
          "inputs": [],
          "name": "getCountry",
          "outputs": [
            {
              "internalType": "bytes",
              "name": "",
              "type": "bytes"
            }
          ],
          "stateMutability": "view",
          "type": "function"
        },
        {
          "inputs": [],
          "name": "getMunicipality",
          "outputs": [
            {
              "internalType": "bytes",
              "name": "",
              "type": "bytes"
            }
          ],
          "stateMutability": "view",
          "type": "function"
        },
        {
          "inputs": [],
          "name": "getRegion",
          "outputs": [
            {
              "internalType": "bytes",
              "name": "",
              "type": "bytes"
            }
          ],
          "stateMutability": "view",
          "type": "function"
        },
        {
          "inputs": [],
          "name": "getTaxCode",
          "outputs": [
            {
              "internalType": "bytes",
              "name": "",
              "type": "bytes"
            }
          ],
          "stateMutability": "view",
          "type": "function"
        },
        {
          "inputs": [],
          "name": "owner",
          "outputs": [
            {
              "internalType": "address",
              "name": "",
              "type": "address"
            }
          ],
          "stateMutability": "view",
          "type": "function"
        },
        {
          "inputs": [
            {
              "internalType": "bytes",
              "name": "_country",
              "type": "bytes"
            }
          ],
          "name": "setCountry",
          "outputs": [],
          "stateMutability": "nonpayable",
          "type": "function"
        },
        {
          "inputs": [
            {
              "internalType": "bytes",
              "name": "_municipality",
              "type": "bytes"
            }
          ],
          "name": "setMunicipality",
          "outputs": [],
          "stateMutability": "nonpayable",
          "type": "function"
        },
        {
          "inputs": [
            {
              "internalType": "bytes",
              "name": "_region",
              "type": "bytes"
            }
          ],
          "name": "setRegion",
          "outputs": [],
          "stateMutability": "nonpayable",
          "type": "function"
        },
        {
          "inputs": [
            {
              "internalType": "bytes",
              "name": "_taxCode",
              "type": "bytes"
            }
          ],
          "name": "setTaxCode",
          "outputs": [],
          "stateMutability": "nonpayable",
          "type": "function"
        }
      ],
      "devdoc": {
        "author": "Christian Palazzo <palazzochristian@yahoo.it>",
        "custom:experimental": "This is an experimental contract.",
        "kind": "dev",
        "methods": {},
        "title": "The Voter's Digital Electoral Card",
        "version": 1
      },
      "evm": {
        "bytecode": {
          "linkReferences": {},
          "object": "608060405234801562000093576040517f08c379a000000000000000000000000000000000000000000000000000000000815260206004820152602260248201527f45746865722073656e7420746f206e6f6e2d70617961626c652066756e637469604482019081527f6f6e0000000000000000000000000000000000000000000000000000000000006064830152608482fd5b506040516200138f3803806200138f833981016040819052620000b691620004a7565b60008054600160a060020a031916331790556001620000d6858262000762565b506002620000e5848262000762565b506003620000f4838262000762565b50600462000103828262000762565b50505050506200083d565b60405190565b6200011e6200010e565b7f08c379a000000000000000000000000000000000000000000000000000000000815260206004820152602260248201527f414249206465636f64696e673a207475706c65206461746120746f6f2073686f604482019081527f72740000000000000000000000000000000000000000000000000000000000006064830152608482fd5b620001ac6200010e565b7f08c379a000000000000000000000000000000000000000000000000000000000815260206004820152602260248201527f414249206465636f64696e673a20696e76616c6964207475706c65206f666673604482019081527f65740000000000000000000000000000000000000000000000000000000000006064830152608482fd5b6200023a6200010e565b7f08c379a000000000000000000000000000000000000000000000000000000000815260206004820152602b60248201527f414249206465636f64696e673a20696e76616c69642063616c6c646174612061604482019081527f72726179206f66667365740000000000000000000000000000000000000000006064830152608482fd5b620002c86200010e565b7f08c379a000000000000000000000000000000000000000000000000000000000815260206004820152602760248201527f414249206465636f64696e673a20696e76616c69642062797465206172726179604482019081527f206c656e677468000000000000000000000000000000000000000000000000006064830152608482fd5b601f01601f191690565b7f4e487b7100000000000000000000000000000000000000000000000000000000600052604160045260246000fd5b62000390826200034c565b81018181106001604060020a0382111715620003b057620003b062000356565b6040525050565b6000620003c36200010e565b9050620003d1828262000385565b919050565b60006001604060020a03821115620003f257620003f262000356565b620003fd826200034c565b60200192915050565b60005b838110156200042357818101518382015260200162000409565b50506000910152565b6000620004436200043d84620003d6565b620003b7565b905082815260208101848484011115620004615762000461620002be565b6200046e84828562000406565b509392505050565b600082601f8301126200048d576200048d62000230565b81516200049f8482602086016200042c565b949350505050565b60008060008060808587031215620004c357620004c362000114565b84516001604060020a03811115620004df57620004df620001a2565b620004ed8782880162000476565b94505060208501516001604060020a038111156200050f576200050f620001a2565b6200051d8782880162000476565b93505060408501516001604060020a038111156200053f576200053f620001a2565b6200054d8782880162000476565b92505060608501516001604060020a038111156200056f576200056f620001a2565b6200057d8782880162000476565b91505092959194509250565b5190565b7f4e487b7100000000000000000000000000000000000000000000000000000000600052602260045260246000fd5b600281046001821680620005d157607f821691505b602082108103620005e657620005e66200058d565b50919050565b60009081526020902090565b6020601f919091010490565b60020a0290565b6000600883026200061f6000198262000604565b6200062b868362000604565b811690199390931692909217949350505050565b90565b60006200065d6200065762000657846200063f565b6200063f565b92915050565b6200066e8362000642565b620006866200067d826200063f565b8484546200060b565b825550505050565b600090565b6200069d6200068e565b620006aa81848462000663565b505050565b81811015620006ce57620006c560008262000693565b600101620006af565b5050565b601f821115620006aa57620006e781620005ec565b620006f284620005f8565b81016020851015620007015750805b620007196200071085620005f8565b830182620006af565b5050505050565b60020a900490565b60006200073b6000196008850262000720565b199190911692915050565b600062000754838362000728565b600290930290921792915050565b6200076d8262000589565b6001604060020a0381111562000787576200078762000356565b620007938254620005bc565b620007a0828285620006d2565b6020601f831160018114620007d35760008415620007be5750858201515b620007ca858262000746565b86555062000835565b601f198416620007e386620005ec565b60005b82811015620008085788850151825560209485019460019092019101620007e6565b8683101562000828578489015162000824601f89168262000728565b8355505b6001600288020188555050505b505050505050565b610b42806200084d6000396000f3fe608060405234801561007b5760405160e560020a62461bcd02815260206004820152602260248201527f45746865722073656e7420746f206e6f6e2d70617961626c652066756e637469604482019081527f6f6e0000000000000000000000000000000000000000000000000000000000006064830152608482fd5b506004361061011b576000357c0100000000000000000000000000000000000000000000000000000000900480638da5cb5b116100ee5780638da5cb5b146101e45780639e0c3ead146101f9578063b45bfd5714610201578063e8d3155014610209578063f0f7c75c146102115761011b565b806302c5d5121461018b5780630c484d1a146101a057806310bfdfb1146101be5780632d70e9af146101d1575b60405160e560020a62461bcd02815260206004820152603560248201527f436f6e747261637420646f6573206e6f7420686176652066616c6c6261636b20604482019081527f6e6f7220726563656976652066756e6374696f6e7300000000000000000000006064830152608482fd5b61019e610199366004610725565b610224565b005b6101a8610277565b6040516101b591906107c9565b60405180910390f35b61019e6101cc366004610725565b610309565b61019e6101df366004610725565b61034f565b6101ec610395565b6040516101b5919061081a565b6101a86103b1565b6101a86103c0565b6101a86103cf565b61019e61021f366004610725565b6103de565b60005473ffffffffffffffffffffffffffffffffffffffff1633146102675760405160e560020a62461bcd02815260040161025e90610893565b60405180910390fd5b60026102738282610a45565b5050565b606060038054610286906108d2565b80601f01602080910402602001604051908101604052809291908181526020018280546102b2906108d2565b80156102ff5780601f106102d4576101008083540402835291602001916102ff565b820191906000526020600020905b8154815290600101906020018083116102e257829003601f168201915b5050505050905090565b60005473ffffffffffffffffffffffffffffffffffffffff1633146103435760405160e560020a62461bcd02815260040161025e90610893565b60036102738282610a45565b60005473ffffffffffffffffffffffffffffffffffffffff1633146103895760405160e560020a62461bcd02815260040161025e90610893565b60016102738282610a45565b60005473ffffffffffffffffffffffffffffffffffffffff1681565b606060048054610286906108d2565b606060028054610286906108d2565b606060018054610286906108d2565b60005473ffffffffffffffffffffffffffffffffffffffff1633146104185760405160e560020a62461bcd02815260040161025e90610893565b60046102738282610a45565b60405190565b610432610424565b60e560020a62461bcd02815260206004820152602260248201527f414249206465636f64696e673a207475706c65206461746120746f6f2073686f604482019081527f72740000000000000000000000000000000000000000000000000000000000006064830152608482fd5b6104a7610424565b60e560020a62461bcd02815260206004820152602260248201527f414249206465636f64696e673a20696e76616c6964207475706c65206f666673604482019081527f65740000000000000000000000000000000000000000000000000000000000006064830152608482fd5b61051c610424565b60e560020a62461bcd02815260206004820152602b60248201527f414249206465636f64696e673a20696e76616c69642063616c6c646174612061604482019081527f72726179206f66667365740000000000000000000000000000000000000000006064830152608482fd5b610591610424565b60e560020a62461bcd02815260206004820152602760248201527f414249206465636f64696e673a20696e76616c69642062797465206172726179604482019081527f206c656e677468000000000000000000000000000000000000000000000000006064830152608482fd5b601f01601f191690565b7f4e487b7100000000000000000000000000000000000000000000000000000000600052604160045260246000fd5b610640826105fe565b810181811067ffffffffffffffff8211171561065e5761065e610608565b6040525050565b600061066f610424565b905061067b8282610637565b919050565b600067ffffffffffffffff82111561069a5761069a610608565b6106a3826105fe565b60200192915050565b82818337506000910152565b60006106cb6106c684610680565b610665565b9050828152602081018484840111156106e6576106e6610589565b6106f18482856106ac565b509392505050565b600082601f83011261070d5761070d610514565b813561071d8482602086016106b8565b949350505050565b60006020828403121561073a5761073a61042a565b813567ffffffffffffffff8111156107545761075461049f565b61071d848285016106f9565b5190565b90815260200190565b60005b83811015610788578181015183820152602001610770565b50506000910152565b600061079c82610760565b6107a68185610764565b93506107b681856020860161076d565b6107bf816105fe565b9093019392505050565b602080825281016107da8184610791565b9392505050565b73ffffffffffffffffffffffffffffffffffffffff1690565b6000610805826107e1565b92915050565b610814816107fa565b82525050565b60208101610805828461080b565b7f4f6e6c79206f776e65722063616e2063616c6c20746869732066756e6374696f81527f6e00000000000000000000000000000000000000000000000000000000000000602090910152565b6000610881602183610764565b915061088c82610828565b5060400190565b6020808252810161080581610874565b7f4e487b7100000000000000000000000000000000000000000000000000000000600052602260045260246000fd5b6002810460018216806108e657607f821691505b6020821081036108f8576108f86108a3565b50919050565b60009081526020902090565b6020601f919091010490565b60020a0290565b60006008830261092f60001982610916565b6109398683610916565b811690199390931692909217949350505050565b90565b60006108056109616109618461094d565b61094d565b61096f83610950565b61098361097b8261094d565b84845461091d565b825550505050565b600090565b61099861098b565b6109a3818484610966565b505050565b81811015610273576109bb600082610990565b6001016109a8565b601f8211156109a3576109d5816108fe565b6109de8461090a565b810160208510156109ec5750805b610a006109f88561090a565b8301826109a8565b5050505050565b60020a900490565b6000610a2060001960088502610a07565b199190911692915050565b6000610a378383610a0f565b600290930290921792915050565b610a4e82610760565b67ffffffffffffffff811115610a6657610a66610608565b610a7082546108d2565b610a7b8282856109c3565b6020601f831160018114610aa95760008415610a975750858201515b610aa18582610a2b565b865550610b04565b601f198416610ab7866108fe565b60005b82811015610ada5788850151825560209485019460019092019101610aba565b86831015610af75784890151610af3601f891682610a0f565b8355505b6001600288020188555050505b50505050505056fea2646970667358221220974a03e9eb10b5816c147845f95dcf72e6ef7b803ae1bb2d28cee71a0e186ec364736f6c63430008180033",
          "opcodes": "PUSH1 0x80 PUSH1 0x40 MSTORE CALLVALUE DUP1 ISZERO PUSH3 0x93 JUMPI PUSH1 0x40 MLOAD PUSH32 0x8C379A000000000000000000000000000000000000000000000000000000000 DUP2 MSTORE PUSH1 0x20 PUSH1 0x4 DUP3 ADD MSTORE PUSH1 0x22 PUSH1 0x24 DUP3 ADD MSTORE PUSH32 0x45746865722073656E7420746F206E6F6E2D70617961626C652066756E637469 PUSH1 0x44 DUP3 ADD SWAP1 DUP2 MSTORE PUSH32 0x6F6E000000000000000000000000000000000000000000000000000000000000 PUSH1 0x64 DUP4 ADD MSTORE PUSH1 0x84 DUP3 REVERT JUMPDEST POP PUSH1 0x40 MLOAD PUSH3 0x138F CODESIZE SUB DUP1 PUSH3 0x138F DUP4 CODECOPY DUP2 ADD PUSH1 0x40 DUP2 SWAP1 MSTORE PUSH3 0xB6 SWAP2 PUSH3 0x4A7 JUMP JUMPDEST PUSH1 0x0 DUP1 SLOAD PUSH1 0x1 PUSH1 0xA0 PUSH1 0x2 EXP SUB NOT AND CALLER OR SWAP1 SSTORE PUSH1 0x1 PUSH3 0xD6 DUP6 DUP3 PUSH3 0x762 JUMP JUMPDEST POP PUSH1 0x2 PUSH3 0xE5 DUP5 DUP3 PUSH3 0x762 JUMP JUMPDEST POP PUSH1 0x3 PUSH3 0xF4 DUP4 DUP3 PUSH3 0x762 JUMP JUMPDEST POP PUSH1 0x4 PUSH3 0x103 DUP3 DUP3 PUSH3 0x762 JUMP JUMPDEST POP POP POP POP POP PUSH3 0x83D JUMP JUMPDEST PUSH1 0x40 MLOAD SWAP1 JUMP JUMPDEST PUSH3 0x11E PUSH3 0x10E JUMP JUMPDEST PUSH32 0x8C379A000000000000000000000000000000000000000000000000000000000 DUP2 MSTORE PUSH1 0x20 PUSH1 0x4 DUP3 ADD MSTORE PUSH1 0x22 PUSH1 0x24 DUP3 ADD MSTORE PUSH32 0x414249206465636F64696E673A207475706C65206461746120746F6F2073686F PUSH1 0x44 DUP3 ADD SWAP1 DUP2 MSTORE PUSH32 0x7274000000000000000000000000000000000000000000000000000000000000 PUSH1 0x64 DUP4 ADD MSTORE PUSH1 0x84 DUP3 REVERT JUMPDEST PUSH3 0x1AC PUSH3 0x10E JUMP JUMPDEST PUSH32 0x8C379A000000000000000000000000000000000000000000000000000000000 DUP2 MSTORE PUSH1 0x20 PUSH1 0x4 DUP3 ADD MSTORE PUSH1 0x22 PUSH1 0x24 DUP3 ADD MSTORE PUSH32 0x414249206465636F64696E673A20696E76616C6964207475706C65206F666673 PUSH1 0x44 DUP3 ADD SWAP1 DUP2 MSTORE PUSH32 0x6574000000000000000000000000000000000000000000000000000000000000 PUSH1 0x64 DUP4 ADD MSTORE PUSH1 0x84 DUP3 REVERT JUMPDEST PUSH3 0x23A PUSH3 0x10E JUMP JUMPDEST PUSH32 0x8C379A000000000000000000000000000000000000000000000000000000000 DUP2 MSTORE PUSH1 0x20 PUSH1 0x4 DUP3 ADD MSTORE PUSH1 0x2B PUSH1 0x24 DUP3 ADD MSTORE PUSH32 0x414249206465636F64696E673A20696E76616C69642063616C6C646174612061 PUSH1 0x44 DUP3 ADD SWAP1 DUP2 MSTORE PUSH32 0x72726179206F6666736574000000000000000000000000000000000000000000 PUSH1 0x64 DUP4 ADD MSTORE PUSH1 0x84 DUP3 REVERT JUMPDEST PUSH3 0x2C8 PUSH3 0x10E JUMP JUMPDEST PUSH32 0x8C379A000000000000000000000000000000000000000000000000000000000 DUP2 MSTORE PUSH1 0x20 PUSH1 0x4 DUP3 ADD MSTORE PUSH1 0x27 PUSH1 0x24 DUP3 ADD MSTORE PUSH32 0x414249206465636F64696E673A20696E76616C69642062797465206172726179 PUSH1 0x44 DUP3 ADD SWAP1 DUP2 MSTORE PUSH32 0x206C656E67746800000000000000000000000000000000000000000000000000 PUSH1 0x64 DUP4 ADD MSTORE PUSH1 0x84 DUP3 REVERT JUMPDEST PUSH1 0x1F ADD PUSH1 0x1F NOT AND SWAP1 JUMP JUMPDEST PUSH32 0x4E487B7100000000000000000000000000000000000000000000000000000000 PUSH1 0x0 MSTORE PUSH1 0x41 PUSH1 0x4 MSTORE PUSH1 0x24 PUSH1 0x0 REVERT JUMPDEST PUSH3 0x390 DUP3 PUSH3 0x34C JUMP JUMPDEST DUP2 ADD DUP2 DUP2 LT PUSH1 0x1 PUSH1 0x40 PUSH1 0x2 EXP SUB DUP3 GT OR ISZERO PUSH3 0x3B0 JUMPI PUSH3 0x3B0 PUSH3 0x356 JUMP JUMPDEST PUSH1 0x40 MSTORE POP POP JUMP JUMPDEST PUSH1 0x0 PUSH3 0x3C3 PUSH3 0x10E JUMP JUMPDEST SWAP1 POP PUSH3 0x3D1 DUP3 DUP3 PUSH3 0x385 JUMP JUMPDEST SWAP2 SWAP1 POP JUMP JUMPDEST PUSH1 0x0 PUSH1 0x1 PUSH1 0x40 PUSH1 0x2 EXP SUB DUP3 GT ISZERO PUSH3 0x3F2 JUMPI PUSH3 0x3F2 PUSH3 0x356 JUMP JUMPDEST PUSH3 0x3FD DUP3 PUSH3 0x34C JUMP JUMPDEST PUSH1 0x20 ADD SWAP3 SWAP2 POP POP JUMP JUMPDEST PUSH1 0x0 JUMPDEST DUP4 DUP2 LT ISZERO PUSH3 0x423 JUMPI DUP2 DUP2 ADD MLOAD DUP4 DUP3 ADD MSTORE PUSH1 0x20 ADD PUSH3 0x409 JUMP JUMPDEST POP POP PUSH1 0x0 SWAP2 ADD MSTORE JUMP JUMPDEST PUSH1 0x0 PUSH3 0x443 PUSH3 0x43D DUP5 PUSH3 0x3D6 JUMP JUMPDEST PUSH3 0x3B7 JUMP JUMPDEST SWAP1 POP DUP3 DUP2 MSTORE PUSH1 0x20 DUP2 ADD DUP5 DUP5 DUP5 ADD GT ISZERO PUSH3 0x461 JUMPI PUSH3 0x461 PUSH3 0x2BE JUMP JUMPDEST PUSH3 0x46E DUP5 DUP3 DUP6 PUSH3 0x406 JUMP JUMPDEST POP SWAP4 SWAP3 POP POP POP JUMP JUMPDEST PUSH1 0x0 DUP3 PUSH1 0x1F DUP4 ADD SLT PUSH3 0x48D JUMPI PUSH3 0x48D PUSH3 0x230 JUMP JUMPDEST DUP2 MLOAD PUSH3 0x49F DUP5 DUP3 PUSH1 0x20 DUP7 ADD PUSH3 0x42C JUMP JUMPDEST SWAP5 SWAP4 POP POP POP POP JUMP JUMPDEST PUSH1 0x0 DUP1 PUSH1 0x0 DUP1 PUSH1 0x80 DUP6 DUP8 SUB SLT ISZERO PUSH3 0x4C3 JUMPI PUSH3 0x4C3 PUSH3 0x114 JUMP JUMPDEST DUP5 MLOAD PUSH1 0x1 PUSH1 0x40 PUSH1 0x2 EXP SUB DUP2 GT ISZERO PUSH3 0x4DF JUMPI PUSH3 0x4DF PUSH3 0x1A2 JUMP JUMPDEST PUSH3 0x4ED DUP8 DUP3 DUP9 ADD PUSH3 0x476 JUMP JUMPDEST SWAP5 POP POP PUSH1 0x20 DUP6 ADD MLOAD PUSH1 0x1 PUSH1 0x40 PUSH1 0x2 EXP SUB DUP2 GT ISZERO PUSH3 0x50F JUMPI PUSH3 0x50F PUSH3 0x1A2 JUMP JUMPDEST PUSH3 0x51D DUP8 DUP3 DUP9 ADD PUSH3 0x476 JUMP JUMPDEST SWAP4 POP POP PUSH1 0x40 DUP6 ADD MLOAD PUSH1 0x1 PUSH1 0x40 PUSH1 0x2 EXP SUB DUP2 GT ISZERO PUSH3 0x53F JUMPI PUSH3 0x53F PUSH3 0x1A2 JUMP JUMPDEST PUSH3 0x54D DUP8 DUP3 DUP9 ADD PUSH3 0x476 JUMP JUMPDEST SWAP3 POP POP PUSH1 0x60 DUP6 ADD MLOAD PUSH1 0x1 PUSH1 0x40 PUSH1 0x2 EXP SUB DUP2 GT ISZERO PUSH3 0x56F JUMPI PUSH3 0x56F PUSH3 0x1A2 JUMP JUMPDEST PUSH3 0x57D DUP8 DUP3 DUP9 ADD PUSH3 0x476 JUMP JUMPDEST SWAP2 POP POP SWAP3 SWAP6 SWAP2 SWAP5 POP SWAP3 POP JUMP JUMPDEST MLOAD SWAP1 JUMP JUMPDEST PUSH32 0x4E487B7100000000000000000000000000000000000000000000000000000000 PUSH1 0x0 MSTORE PUSH1 0x22 PUSH1 0x4 MSTORE PUSH1 0x24 PUSH1 0x0 REVERT JUMPDEST PUSH1 0x2 DUP2 DIV PUSH1 0x1 DUP3 AND DUP1 PUSH3 0x5D1 JUMPI PUSH1 0x7F DUP3 AND SWAP2 POP JUMPDEST PUSH1 0x20 DUP3 LT DUP2 SUB PUSH3 0x5E6 JUMPI PUSH3 0x5E6 PUSH3 0x58D JUMP JUMPDEST POP SWAP2 SWAP1 POP JUMP JUMPDEST PUSH1 0x0 SWAP1 DUP2 MSTORE PUSH1 0x20 SWAP1 KECCAK256 SWAP1 JUMP JUMPDEST PUSH1 0x20 PUSH1 0x1F SWAP2 SWAP1 SWAP2 ADD DIV SWAP1 JUMP JUMPDEST PUSH1 0x2 EXP MUL SWAP1 JUMP JUMPDEST PUSH1 0x0 PUSH1 0x8 DUP4 MUL PUSH3 0x61F PUSH1 0x0 NOT DUP3 PUSH3 0x604 JUMP JUMPDEST PUSH3 0x62B DUP7 DUP4 PUSH3 0x604 JUMP JUMPDEST DUP2 AND SWAP1 NOT SWAP4 SWAP1 SWAP4 AND SWAP3 SWAP1 SWAP3 OR SWAP5 SWAP4 POP POP POP POP JUMP JUMPDEST SWAP1 JUMP JUMPDEST PUSH1 0x0 PUSH3 0x65D PUSH3 0x657 PUSH3 0x657 DUP5 PUSH3 0x63F JUMP JUMPDEST PUSH3 0x63F JUMP JUMPDEST SWAP3 SWAP2 POP POP JUMP JUMPDEST PUSH3 0x66E DUP4 PUSH3 0x642 JUMP JUMPDEST PUSH3 0x686 PUSH3 0x67D DUP3 PUSH3 0x63F JUMP JUMPDEST DUP5 DUP5 SLOAD PUSH3 0x60B JUMP JUMPDEST DUP3 SSTORE POP POP POP POP JUMP JUMPDEST PUSH1 0x0 SWAP1 JUMP JUMPDEST PUSH3 0x69D PUSH3 0x68E JUMP JUMPDEST PUSH3 0x6AA DUP2 DUP5 DUP5 PUSH3 0x663 JUMP JUMPDEST POP POP POP JUMP JUMPDEST DUP2 DUP2 LT ISZERO PUSH3 0x6CE JUMPI PUSH3 0x6C5 PUSH1 0x0 DUP3 PUSH3 0x693 JUMP JUMPDEST PUSH1 0x1 ADD PUSH3 0x6AF JUMP JUMPDEST POP POP JUMP JUMPDEST PUSH1 0x1F DUP3 GT ISZERO PUSH3 0x6AA JUMPI PUSH3 0x6E7 DUP2 PUSH3 0x5EC JUMP JUMPDEST PUSH3 0x6F2 DUP5 PUSH3 0x5F8 JUMP JUMPDEST DUP2 ADD PUSH1 0x20 DUP6 LT ISZERO PUSH3 0x701 JUMPI POP DUP1 JUMPDEST PUSH3 0x719 PUSH3 0x710 DUP6 PUSH3 0x5F8 JUMP JUMPDEST DUP4 ADD DUP3 PUSH3 0x6AF JUMP JUMPDEST POP POP POP POP POP JUMP JUMPDEST PUSH1 0x2 EXP SWAP1 DIV SWAP1 JUMP JUMPDEST PUSH1 0x0 PUSH3 0x73B PUSH1 0x0 NOT PUSH1 0x8 DUP6 MUL PUSH3 0x720 JUMP JUMPDEST NOT SWAP2 SWAP1 SWAP2 AND SWAP3 SWAP2 POP POP JUMP JUMPDEST PUSH1 0x0 PUSH3 0x754 DUP4 DUP4 PUSH3 0x728 JUMP JUMPDEST PUSH1 0x2 SWAP1 SWAP4 MUL SWAP1 SWAP3 OR SWAP3 SWAP2 POP POP JUMP JUMPDEST PUSH3 0x76D DUP3 PUSH3 0x589 JUMP JUMPDEST PUSH1 0x1 PUSH1 0x40 PUSH1 0x2 EXP SUB DUP2 GT ISZERO PUSH3 0x787 JUMPI PUSH3 0x787 PUSH3 0x356 JUMP JUMPDEST PUSH3 0x793 DUP3 SLOAD PUSH3 0x5BC JUMP JUMPDEST PUSH3 0x7A0 DUP3 DUP3 DUP6 PUSH3 0x6D2 JUMP JUMPDEST PUSH1 0x20 PUSH1 0x1F DUP4 GT PUSH1 0x1 DUP2 EQ PUSH3 0x7D3 JUMPI PUSH1 0x0 DUP5 ISZERO PUSH3 0x7BE JUMPI POP DUP6 DUP3 ADD MLOAD JUMPDEST PUSH3 0x7CA DUP6 DUP3 PUSH3 0x746 JUMP JUMPDEST DUP7 SSTORE POP PUSH3 0x835 JUMP JUMPDEST PUSH1 0x1F NOT DUP5 AND PUSH3 0x7E3 DUP7 PUSH3 0x5EC JUMP JUMPDEST PUSH1 0x0 JUMPDEST DUP3 DUP2 LT ISZERO PUSH3 0x808 JUMPI DUP9 DUP6 ADD MLOAD DUP3 SSTORE PUSH1 0x20 SWAP5 DUP6 ADD SWAP5 PUSH1 0x1 SWAP1 SWAP3 ADD SWAP2 ADD PUSH3 0x7E6 JUMP JUMPDEST DUP7 DUP4 LT ISZERO PUSH3 0x828 JUMPI DUP5 DUP10 ADD MLOAD PUSH3 0x824 PUSH1 0x1F DUP10 AND DUP3 PUSH3 0x728 JUMP JUMPDEST DUP4 SSTORE POP JUMPDEST PUSH1 0x1 PUSH1 0x2 DUP9 MUL ADD DUP9 SSTORE POP POP POP JUMPDEST POP POP POP POP POP POP JUMP JUMPDEST PUSH2 0xB42 DUP1 PUSH3 0x84D PUSH1 0x0 CODECOPY PUSH1 0x0 RETURN INVALID PUSH1 0x80 PUSH1 0x40 MSTORE CALLVALUE DUP1 ISZERO PUSH2 0x7B JUMPI PUSH1 0x40 MLOAD PUSH1 0xE5 PUSH1 0x2 EXP PUSH3 0x461BCD MUL DUP2 MSTORE PUSH1 0x20 PUSH1 0x4 DUP3 ADD MSTORE PUSH1 0x22 PUSH1 0x24 DUP3 ADD MSTORE PUSH32 0x45746865722073656E7420746F206E6F6E2D70617961626C652066756E637469 PUSH1 0x44 DUP3 ADD SWAP1 DUP2 MSTORE PUSH32 0x6F6E000000000000000000000000000000000000000000000000000000000000 PUSH1 0x64 DUP4 ADD MSTORE PUSH1 0x84 DUP3 REVERT JUMPDEST POP PUSH1 0x4 CALLDATASIZE LT PUSH2 0x11B JUMPI PUSH1 0x0 CALLDATALOAD PUSH29 0x100000000000000000000000000000000000000000000000000000000 SWAP1 DIV DUP1 PUSH4 0x8DA5CB5B GT PUSH2 0xEE JUMPI DUP1 PUSH4 0x8DA5CB5B EQ PUSH2 0x1E4 JUMPI DUP1 PUSH4 0x9E0C3EAD EQ PUSH2 0x1F9 JUMPI DUP1 PUSH4 0xB45BFD57 EQ PUSH2 0x201 JUMPI DUP1 PUSH4 0xE8D31550 EQ PUSH2 0x209 JUMPI DUP1 PUSH4 0xF0F7C75C EQ PUSH2 0x211 JUMPI PUSH2 0x11B JUMP JUMPDEST DUP1 PUSH4 0x2C5D512 EQ PUSH2 0x18B JUMPI DUP1 PUSH4 0xC484D1A EQ PUSH2 0x1A0 JUMPI DUP1 PUSH4 0x10BFDFB1 EQ PUSH2 0x1BE JUMPI DUP1 PUSH4 0x2D70E9AF EQ PUSH2 0x1D1 JUMPI JUMPDEST PUSH1 0x40 MLOAD PUSH1 0xE5 PUSH1 0x2 EXP PUSH3 0x461BCD MUL DUP2 MSTORE PUSH1 0x20 PUSH1 0x4 DUP3 ADD MSTORE PUSH1 0x35 PUSH1 0x24 DUP3 ADD MSTORE PUSH32 0x436F6E747261637420646F6573206E6F7420686176652066616C6C6261636B20 PUSH1 0x44 DUP3 ADD SWAP1 DUP2 MSTORE PUSH32 0x6E6F7220726563656976652066756E6374696F6E730000000000000000000000 PUSH1 0x64 DUP4 ADD MSTORE PUSH1 0x84 DUP3 REVERT JUMPDEST PUSH2 0x19E PUSH2 0x199 CALLDATASIZE PUSH1 0x4 PUSH2 0x725 JUMP JUMPDEST PUSH2 0x224 JUMP JUMPDEST STOP JUMPDEST PUSH2 0x1A8 PUSH2 0x277 JUMP JUMPDEST PUSH1 0x40 MLOAD PUSH2 0x1B5 SWAP2 SWAP1 PUSH2 0x7C9 JUMP JUMPDEST PUSH1 0x40 MLOAD DUP1 SWAP2 SUB SWAP1 RETURN JUMPDEST PUSH2 0x19E PUSH2 0x1CC CALLDATASIZE PUSH1 0x4 PUSH2 0x725 JUMP JUMPDEST PUSH2 0x309 JUMP JUMPDEST PUSH2 0x19E PUSH2 0x1DF CALLDATASIZE PUSH1 0x4 PUSH2 0x725 JUMP JUMPDEST PUSH2 0x34F JUMP JUMPDEST PUSH2 0x1EC PUSH2 0x395 JUMP JUMPDEST PUSH1 0x40 MLOAD PUSH2 0x1B5 SWAP2 SWAP1 PUSH2 0x81A JUMP JUMPDEST PUSH2 0x1A8 PUSH2 0x3B1 JUMP JUMPDEST PUSH2 0x1A8 PUSH2 0x3C0 JUMP JUMPDEST PUSH2 0x1A8 PUSH2 0x3CF JUMP JUMPDEST PUSH2 0x19E PUSH2 0x21F CALLDATASIZE PUSH1 0x4 PUSH2 0x725 JUMP JUMPDEST PUSH2 0x3DE JUMP JUMPDEST PUSH1 0x0 SLOAD PUSH20 0xFFFFFFFFFFFFFFFFFFFFFFFFFFFFFFFFFFFFFFFF AND CALLER EQ PUSH2 0x267 JUMPI PUSH1 0x40 MLOAD PUSH1 0xE5 PUSH1 0x2 EXP PUSH3 0x461BCD MUL DUP2 MSTORE PUSH1 0x4 ADD PUSH2 0x25E SWAP1 PUSH2 0x893 JUMP JUMPDEST PUSH1 0x40 MLOAD DUP1 SWAP2 SUB SWAP1 REVERT JUMPDEST PUSH1 0x2 PUSH2 0x273 DUP3 DUP3 PUSH2 0xA45 JUMP JUMPDEST POP POP JUMP JUMPDEST PUSH1 0x60 PUSH1 0x3 DUP1 SLOAD PUSH2 0x286 SWAP1 PUSH2 0x8D2 JUMP JUMPDEST DUP1 PUSH1 0x1F ADD PUSH1 0x20 DUP1 SWAP2 DIV MUL PUSH1 0x20 ADD PUSH1 0x40 MLOAD SWAP1 DUP2 ADD PUSH1 0x40 MSTORE DUP1 SWAP3 SWAP2 SWAP1 DUP2 DUP2 MSTORE PUSH1 0x20 ADD DUP3 DUP1 SLOAD PUSH2 0x2B2 SWAP1 PUSH2 0x8D2 JUMP JUMPDEST DUP1 ISZERO PUSH2 0x2FF JUMPI DUP1 PUSH1 0x1F LT PUSH2 0x2D4 JUMPI PUSH2 0x100 DUP1 DUP4 SLOAD DIV MUL DUP4 MSTORE SWAP2 PUSH1 0x20 ADD SWAP2 PUSH2 0x2FF JUMP JUMPDEST DUP3 ADD SWAP2 SWAP1 PUSH1 0x0 MSTORE PUSH1 0x20 PUSH1 0x0 KECCAK256 SWAP1 JUMPDEST DUP2 SLOAD DUP2 MSTORE SWAP1 PUSH1 0x1 ADD SWAP1 PUSH1 0x20 ADD DUP1 DUP4 GT PUSH2 0x2E2 JUMPI DUP3 SWAP1 SUB PUSH1 0x1F AND DUP3 ADD SWAP2 JUMPDEST POP POP POP POP POP SWAP1 POP SWAP1 JUMP JUMPDEST PUSH1 0x0 SLOAD PUSH20 0xFFFFFFFFFFFFFFFFFFFFFFFFFFFFFFFFFFFFFFFF AND CALLER EQ PUSH2 0x343 JUMPI PUSH1 0x40 MLOAD PUSH1 0xE5 PUSH1 0x2 EXP PUSH3 0x461BCD MUL DUP2 MSTORE PUSH1 0x4 ADD PUSH2 0x25E SWAP1 PUSH2 0x893 JUMP JUMPDEST PUSH1 0x3 PUSH2 0x273 DUP3 DUP3 PUSH2 0xA45 JUMP JUMPDEST PUSH1 0x0 SLOAD PUSH20 0xFFFFFFFFFFFFFFFFFFFFFFFFFFFFFFFFFFFFFFFF AND CALLER EQ PUSH2 0x389 JUMPI PUSH1 0x40 MLOAD PUSH1 0xE5 PUSH1 0x2 EXP PUSH3 0x461BCD MUL DUP2 MSTORE PUSH1 0x4 ADD PUSH2 0x25E SWAP1 PUSH2 0x893 JUMP JUMPDEST PUSH1 0x1 PUSH2 0x273 DUP3 DUP3 PUSH2 0xA45 JUMP JUMPDEST PUSH1 0x0 SLOAD PUSH20 0xFFFFFFFFFFFFFFFFFFFFFFFFFFFFFFFFFFFFFFFF AND DUP2 JUMP JUMPDEST PUSH1 0x60 PUSH1 0x4 DUP1 SLOAD PUSH2 0x286 SWAP1 PUSH2 0x8D2 JUMP JUMPDEST PUSH1 0x60 PUSH1 0x2 DUP1 SLOAD PUSH2 0x286 SWAP1 PUSH2 0x8D2 JUMP JUMPDEST PUSH1 0x60 PUSH1 0x1 DUP1 SLOAD PUSH2 0x286 SWAP1 PUSH2 0x8D2 JUMP JUMPDEST PUSH1 0x0 SLOAD PUSH20 0xFFFFFFFFFFFFFFFFFFFFFFFFFFFFFFFFFFFFFFFF AND CALLER EQ PUSH2 0x418 JUMPI PUSH1 0x40 MLOAD PUSH1 0xE5 PUSH1 0x2 EXP PUSH3 0x461BCD MUL DUP2 MSTORE PUSH1 0x4 ADD PUSH2 0x25E SWAP1 PUSH2 0x893 JUMP JUMPDEST PUSH1 0x4 PUSH2 0x273 DUP3 DUP3 PUSH2 0xA45 JUMP JUMPDEST PUSH1 0x40 MLOAD SWAP1 JUMP JUMPDEST PUSH2 0x432 PUSH2 0x424 JUMP JUMPDEST PUSH1 0xE5 PUSH1 0x2 EXP PUSH3 0x461BCD MUL DUP2 MSTORE PUSH1 0x20 PUSH1 0x4 DUP3 ADD MSTORE PUSH1 0x22 PUSH1 0x24 DUP3 ADD MSTORE PUSH32 0x414249206465636F64696E673A207475706C65206461746120746F6F2073686F PUSH1 0x44 DUP3 ADD SWAP1 DUP2 MSTORE PUSH32 0x7274000000000000000000000000000000000000000000000000000000000000 PUSH1 0x64 DUP4 ADD MSTORE PUSH1 0x84 DUP3 REVERT JUMPDEST PUSH2 0x4A7 PUSH2 0x424 JUMP JUMPDEST PUSH1 0xE5 PUSH1 0x2 EXP PUSH3 0x461BCD MUL DUP2 MSTORE PUSH1 0x20 PUSH1 0x4 DUP3 ADD MSTORE PUSH1 0x22 PUSH1 0x24 DUP3 ADD MSTORE PUSH32 0x414249206465636F64696E673A20696E76616C6964207475706C65206F666673 PUSH1 0x44 DUP3 ADD SWAP1 DUP2 MSTORE PUSH32 0x6574000000000000000000000000000000000000000000000000000000000000 PUSH1 0x64 DUP4 ADD MSTORE PUSH1 0x84 DUP3 REVERT JUMPDEST PUSH2 0x51C PUSH2 0x424 JUMP JUMPDEST PUSH1 0xE5 PUSH1 0x2 EXP PUSH3 0x461BCD MUL DUP2 MSTORE PUSH1 0x20 PUSH1 0x4 DUP3 ADD MSTORE PUSH1 0x2B PUSH1 0x24 DUP3 ADD MSTORE PUSH32 0x414249206465636F64696E673A20696E76616C69642063616C6C646174612061 PUSH1 0x44 DUP3 ADD SWAP1 DUP2 MSTORE PUSH32 0x72726179206F6666736574000000000000000000000000000000000000000000 PUSH1 0x64 DUP4 ADD MSTORE PUSH1 0x84 DUP3 REVERT JUMPDEST PUSH2 0x591 PUSH2 0x424 JUMP JUMPDEST PUSH1 0xE5 PUSH1 0x2 EXP PUSH3 0x461BCD MUL DUP2 MSTORE PUSH1 0x20 PUSH1 0x4 DUP3 ADD MSTORE PUSH1 0x27 PUSH1 0x24 DUP3 ADD MSTORE PUSH32 0x414249206465636F64696E673A20696E76616C69642062797465206172726179 PUSH1 0x44 DUP3 ADD SWAP1 DUP2 MSTORE PUSH32 0x206C656E67746800000000000000000000000000000000000000000000000000 PUSH1 0x64 DUP4 ADD MSTORE PUSH1 0x84 DUP3 REVERT JUMPDEST PUSH1 0x1F ADD PUSH1 0x1F NOT AND SWAP1 JUMP JUMPDEST PUSH32 0x4E487B7100000000000000000000000000000000000000000000000000000000 PUSH1 0x0 MSTORE PUSH1 0x41 PUSH1 0x4 MSTORE PUSH1 0x24 PUSH1 0x0 REVERT JUMPDEST PUSH2 0x640 DUP3 PUSH2 0x5FE JUMP JUMPDEST DUP2 ADD DUP2 DUP2 LT PUSH8 0xFFFFFFFFFFFFFFFF DUP3 GT OR ISZERO PUSH2 0x65E JUMPI PUSH2 0x65E PUSH2 0x608 JUMP JUMPDEST PUSH1 0x40 MSTORE POP POP JUMP JUMPDEST PUSH1 0x0 PUSH2 0x66F PUSH2 0x424 JUMP JUMPDEST SWAP1 POP PUSH2 0x67B DUP3 DUP3 PUSH2 0x637 JUMP JUMPDEST SWAP2 SWAP1 POP JUMP JUMPDEST PUSH1 0x0 PUSH8 0xFFFFFFFFFFFFFFFF DUP3 GT ISZERO PUSH2 0x69A JUMPI PUSH2 0x69A PUSH2 0x608 JUMP JUMPDEST PUSH2 0x6A3 DUP3 PUSH2 0x5FE JUMP JUMPDEST PUSH1 0x20 ADD SWAP3 SWAP2 POP POP JUMP JUMPDEST DUP3 DUP2 DUP4 CALLDATACOPY POP PUSH1 0x0 SWAP2 ADD MSTORE JUMP JUMPDEST PUSH1 0x0 PUSH2 0x6CB PUSH2 0x6C6 DUP5 PUSH2 0x680 JUMP JUMPDEST PUSH2 0x665 JUMP JUMPDEST SWAP1 POP DUP3 DUP2 MSTORE PUSH1 0x20 DUP2 ADD DUP5 DUP5 DUP5 ADD GT ISZERO PUSH2 0x6E6 JUMPI PUSH2 0x6E6 PUSH2 0x589 JUMP JUMPDEST PUSH2 0x6F1 DUP5 DUP3 DUP6 PUSH2 0x6AC JUMP JUMPDEST POP SWAP4 SWAP3 POP POP POP JUMP JUMPDEST PUSH1 0x0 DUP3 PUSH1 0x1F DUP4 ADD SLT PUSH2 0x70D JUMPI PUSH2 0x70D PUSH2 0x514 JUMP JUMPDEST DUP2 CALLDATALOAD PUSH2 0x71D DUP5 DUP3 PUSH1 0x20 DUP7 ADD PUSH2 0x6B8 JUMP JUMPDEST SWAP5 SWAP4 POP POP POP POP JUMP JUMPDEST PUSH1 0x0 PUSH1 0x20 DUP3 DUP5 SUB SLT ISZERO PUSH2 0x73A JUMPI PUSH2 0x73A PUSH2 0x42A JUMP JUMPDEST DUP2 CALLDATALOAD PUSH8 0xFFFFFFFFFFFFFFFF DUP2 GT ISZERO PUSH2 0x754 JUMPI PUSH2 0x754 PUSH2 0x49F JUMP JUMPDEST PUSH2 0x71D DUP5 DUP3 DUP6 ADD PUSH2 0x6F9 JUMP JUMPDEST MLOAD SWAP1 JUMP JUMPDEST SWAP1 DUP2 MSTORE PUSH1 0x20 ADD SWAP1 JUMP JUMPDEST PUSH1 0x0 JUMPDEST DUP4 DUP2 LT ISZERO PUSH2 0x788 JUMPI DUP2 DUP2 ADD MLOAD DUP4 DUP3 ADD MSTORE PUSH1 0x20 ADD PUSH2 0x770 JUMP JUMPDEST POP POP PUSH1 0x0 SWAP2 ADD MSTORE JUMP JUMPDEST PUSH1 0x0 PUSH2 0x79C DUP3 PUSH2 0x760 JUMP JUMPDEST PUSH2 0x7A6 DUP2 DUP6 PUSH2 0x764 JUMP JUMPDEST SWAP4 POP PUSH2 0x7B6 DUP2 DUP6 PUSH1 0x20 DUP7 ADD PUSH2 0x76D JUMP JUMPDEST PUSH2 0x7BF DUP2 PUSH2 0x5FE JUMP JUMPDEST SWAP1 SWAP4 ADD SWAP4 SWAP3 POP POP POP JUMP JUMPDEST PUSH1 0x20 DUP1 DUP3 MSTORE DUP2 ADD PUSH2 0x7DA DUP2 DUP5 PUSH2 0x791 JUMP JUMPDEST SWAP4 SWAP3 POP POP POP JUMP JUMPDEST PUSH20 0xFFFFFFFFFFFFFFFFFFFFFFFFFFFFFFFFFFFFFFFF AND SWAP1 JUMP JUMPDEST PUSH1 0x0 PUSH2 0x805 DUP3 PUSH2 0x7E1 JUMP JUMPDEST SWAP3 SWAP2 POP POP JUMP JUMPDEST PUSH2 0x814 DUP2 PUSH2 0x7FA JUMP JUMPDEST DUP3 MSTORE POP POP JUMP JUMPDEST PUSH1 0x20 DUP2 ADD PUSH2 0x805 DUP3 DUP5 PUSH2 0x80B JUMP JUMPDEST PUSH32 0x4F6E6C79206F776E65722063616E2063616C6C20746869732066756E6374696F DUP2 MSTORE PUSH32 0x6E00000000000000000000000000000000000000000000000000000000000000 PUSH1 0x20 SWAP1 SWAP2 ADD MSTORE JUMP JUMPDEST PUSH1 0x0 PUSH2 0x881 PUSH1 0x21 DUP4 PUSH2 0x764 JUMP JUMPDEST SWAP2 POP PUSH2 0x88C DUP3 PUSH2 0x828 JUMP JUMPDEST POP PUSH1 0x40 ADD SWAP1 JUMP JUMPDEST PUSH1 0x20 DUP1 DUP3 MSTORE DUP2 ADD PUSH2 0x805 DUP2 PUSH2 0x874 JUMP JUMPDEST PUSH32 0x4E487B7100000000000000000000000000000000000000000000000000000000 PUSH1 0x0 MSTORE PUSH1 0x22 PUSH1 0x4 MSTORE PUSH1 0x24 PUSH1 0x0 REVERT JUMPDEST PUSH1 0x2 DUP2 DIV PUSH1 0x1 DUP3 AND DUP1 PUSH2 0x8E6 JUMPI PUSH1 0x7F DUP3 AND SWAP2 POP JUMPDEST PUSH1 0x20 DUP3 LT DUP2 SUB PUSH2 0x8F8 JUMPI PUSH2 0x8F8 PUSH2 0x8A3 JUMP JUMPDEST POP SWAP2 SWAP1 POP JUMP JUMPDEST PUSH1 0x0 SWAP1 DUP2 MSTORE PUSH1 0x20 SWAP1 KECCAK256 SWAP1 JUMP JUMPDEST PUSH1 0x20 PUSH1 0x1F SWAP2 SWAP1 SWAP2 ADD DIV SWAP1 JUMP JUMPDEST PUSH1 0x2 EXP MUL SWAP1 JUMP JUMPDEST PUSH1 0x0 PUSH1 0x8 DUP4 MUL PUSH2 0x92F PUSH1 0x0 NOT DUP3 PUSH2 0x916 JUMP JUMPDEST PUSH2 0x939 DUP7 DUP4 PUSH2 0x916 JUMP JUMPDEST DUP2 AND SWAP1 NOT SWAP4 SWAP1 SWAP4 AND SWAP3 SWAP1 SWAP3 OR SWAP5 SWAP4 POP POP POP POP JUMP JUMPDEST SWAP1 JUMP JUMPDEST PUSH1 0x0 PUSH2 0x805 PUSH2 0x961 PUSH2 0x961 DUP5 PUSH2 0x94D JUMP JUMPDEST PUSH2 0x94D JUMP JUMPDEST PUSH2 0x96F DUP4 PUSH2 0x950 JUMP JUMPDEST PUSH2 0x983 PUSH2 0x97B DUP3 PUSH2 0x94D JUMP JUMPDEST DUP5 DUP5 SLOAD PUSH2 0x91D JUMP JUMPDEST DUP3 SSTORE POP POP POP POP JUMP JUMPDEST PUSH1 0x0 SWAP1 JUMP JUMPDEST PUSH2 0x998 PUSH2 0x98B JUMP JUMPDEST PUSH2 0x9A3 DUP2 DUP5 DUP5 PUSH2 0x966 JUMP JUMPDEST POP POP POP JUMP JUMPDEST DUP2 DUP2 LT ISZERO PUSH2 0x273 JUMPI PUSH2 0x9BB PUSH1 0x0 DUP3 PUSH2 0x990 JUMP JUMPDEST PUSH1 0x1 ADD PUSH2 0x9A8 JUMP JUMPDEST PUSH1 0x1F DUP3 GT ISZERO PUSH2 0x9A3 JUMPI PUSH2 0x9D5 DUP2 PUSH2 0x8FE JUMP JUMPDEST PUSH2 0x9DE DUP5 PUSH2 0x90A JUMP JUMPDEST DUP2 ADD PUSH1 0x20 DUP6 LT ISZERO PUSH2 0x9EC JUMPI POP DUP1 JUMPDEST PUSH2 0xA00 PUSH2 0x9F8 DUP6 PUSH2 0x90A JUMP JUMPDEST DUP4 ADD DUP3 PUSH2 0x9A8 JUMP JUMPDEST POP POP POP POP POP JUMP JUMPDEST PUSH1 0x2 EXP SWAP1 DIV SWAP1 JUMP JUMPDEST PUSH1 0x0 PUSH2 0xA20 PUSH1 0x0 NOT PUSH1 0x8 DUP6 MUL PUSH2 0xA07 JUMP JUMPDEST NOT SWAP2 SWAP1 SWAP2 AND SWAP3 SWAP2 POP POP JUMP JUMPDEST PUSH1 0x0 PUSH2 0xA37 DUP4 DUP4 PUSH2 0xA0F JUMP JUMPDEST PUSH1 0x2 SWAP1 SWAP4 MUL SWAP1 SWAP3 OR SWAP3 SWAP2 POP POP JUMP JUMPDEST PUSH2 0xA4E DUP3 PUSH2 0x760 JUMP JUMPDEST PUSH8 0xFFFFFFFFFFFFFFFF DUP2 GT ISZERO PUSH2 0xA66 JUMPI PUSH2 0xA66 PUSH2 0x608 JUMP JUMPDEST PUSH2 0xA70 DUP3 SLOAD PUSH2 0x8D2 JUMP JUMPDEST PUSH2 0xA7B DUP3 DUP3 DUP6 PUSH2 0x9C3 JUMP JUMPDEST PUSH1 0x20 PUSH1 0x1F DUP4 GT PUSH1 0x1 DUP2 EQ PUSH2 0xAA9 JUMPI PUSH1 0x0 DUP5 ISZERO PUSH2 0xA97 JUMPI POP DUP6 DUP3 ADD MLOAD JUMPDEST PUSH2 0xAA1 DUP6 DUP3 PUSH2 0xA2B JUMP JUMPDEST DUP7 SSTORE POP PUSH2 0xB04 JUMP JUMPDEST PUSH1 0x1F NOT DUP5 AND PUSH2 0xAB7 DUP7 PUSH2 0x8FE JUMP JUMPDEST PUSH1 0x0 JUMPDEST DUP3 DUP2 LT ISZERO PUSH2 0xADA JUMPI DUP9 DUP6 ADD MLOAD DUP3 SSTORE PUSH1 0x20 SWAP5 DUP6 ADD SWAP5 PUSH1 0x1 SWAP1 SWAP3 ADD SWAP2 ADD PUSH2 0xABA JUMP JUMPDEST DUP7 DUP4 LT ISZERO PUSH2 0xAF7 JUMPI DUP5 DUP10 ADD MLOAD PUSH2 0xAF3 PUSH1 0x1F DUP10 AND DUP3 PUSH2 0xA0F JUMP JUMPDEST DUP4 SSTORE POP JUMPDEST PUSH1 0x1 PUSH1 0x2 DUP9 MUL ADD DUP9 SSTORE POP POP POP JUMPDEST POP POP POP POP POP POP JUMP INVALID LOG2 PUSH5 0x6970667358 0x22 SLT KECCAK256 SWAP8 BLOBBASEFEE SUB 0xE9 0xEB LT 0xB5 DUP2 PUSH13 0x147845F95DCF72E6EF7B803AE1 0xBB 0x2D 0x28 0xCE 0xE7 BYTE 0xE XOR PUSH15 0xC364736F6C63430008180033000000 "
        },
        "gasEstimates": {
          "creation": {
            "codeDepositCost": "576400",
            "executionCost": "infinite",
            "totalCost": "infinite"
          },
          "external": {
            "getCountry()": "infinite",
            "getMunicipality()": "infinite",
            "getRegion()": "infinite",
            "getTaxCode()": "infinite",
            "owner()": "infinite",
            "setCountry(bytes)": "infinite",
            "setMunicipality(bytes)": "infinite",
            "setRegion(bytes)": "infinite",
            "setTaxCode(bytes)": "infinite"
          }
        },
        "methodIdentifiers": {
          "getCountry()": "9e0c3ead",
          "getMunicipality()": "b45bfd57",
          "getRegion()": "0c484d1a",
          "getTaxCode()": "e8d31550",
          "owner()": "8da5cb5b",
          "setCountry(bytes)": "f0f7c75c",
          "setMunicipality(bytes)": "02c5d512",
          "setRegion(bytes)": "10bfdfb1",
          "setTaxCode(bytes)": "2d70e9af"
        }
      },
      "storageLayout": {
        "storage": [
          {
            "astId": 4,
            "contract": "contracts/DEC.sol:DEC",
            "label": "owner",
            "offset": 0,
            "slot": "0",
            "type": "t_address"
          },
          {
            "astId": 6,
            "contract": "contracts/DEC.sol:DEC",
            "label": "taxCode",
            "offset": 0,
            "slot": "1",
            "type": "t_bytes_storage"
          },
          {
            "astId": 8,
            "contract": "contracts/DEC.sol:DEC",
            "label": "municipality",
            "offset": 0,
            "slot": "2",
            "type": "t_bytes_storage"
          },
          {
            "astId": 10,
            "contract": "contracts/DEC.sol:DEC",
            "label": "region",
            "offset": 0,
            "slot": "3",
            "type": "t_bytes_storage"
          },
          {
            "astId": 12,
            "contract": "contracts/DEC.sol:DEC",
            "label": "country",
            "offset": 0,
            "slot": "4",
            "type": "t_bytes_storage"
          }
        ],
        "types": {
          "t_address": {
            "encoding": "inplace",
            "label": "address",
            "numberOfBytes": "20"
          },
          "t_bytes_storage": {
            "encoding": "bytes",
            "label": "bytes",
            "numberOfBytes": "32"
          }
        }
      },
      "userdoc": {
        "kind": "user",
        "methods": {},
        "version": 1
      }
    }
  }
}